:100000000090002079A202007BB002005BAF0200EA
:10001000BFAF0200BFAF0200BFAF0200BFAF020020
:10002000BFAF0200BFAF0200BFAF02005FB102006E
:10003000BFAF0200BFAF0200C12A0200857A0200F2
:10004000BFAF0200BFAF0200BFAF0200BFAF0200F0
:10005000BFAF0200BFAF0200BFAF0200BFAF0200E0
:10006000BFAF0200BFAF0200BFAF0200BFAF0200D0
:10007000BFAF0200BFAF0200BFAF0200BFAF0200C0
:0C008000BFAF0200BFAF0200BFAF020024
:10009000F0B591B00891074606462D3605462C3539
:1000A000031D0124099250040F970D9406930195A6
:1000B000049606D42AF070FC002107910391109158
:1000C00071E127F021FA03902878334B38215854F6
:1000D0002878014621408207D20F51184007C00FEF
:1000E0000818342158542D482D4901602D482E49B7
:1000F00008602E4CA08DD8811D4626F04FFDA086AD
:10010000102010906871788826F05CFD05463078E4
:1001100024F024FA002801D07D20C543E8B203284A
:1001200049D125F0B9FF1C4F388100267E610F9C14
:10013000606B103027F0AEFA27F0C6FE7881616B55
:10014000088B194A9083488BD083888B1084242095
:10015000085C8007C00F10838868002865D0827B08
:100160001218D37B0F221A40072A21D803259200A8
:1001700001A39B580D9A9F46E3010000C1010000B6
:10018000B1010000B1010000B1010000B1010000A7
:10019000DF010000F5010000686C002040140840F9
:1001A000D6BE898E005555553C2009400620094091
:1001B0000022154615E000271097069B0D9ED7E0FC
:1001C00008462430CA8BE34B1A850A8C5A85498C21
:1001D00099850078012210405883052501E0022509
:1001E0000D9A3846383042700021C1704171352077
:1001F000395430E0394638314E700122CA704E71A0
:1002000031460EF0B5FE3520385C00280BD00F9833
:100210004088032101403846213080780004400D99
:100220000E1A701E86413C203E543B20385C00254F
:10023000002810D03A464032384638303D647D645C
:1002400001210174458285822AF0E0FD2B460EF0E3
:1002500019FF0D9E07E00D9E2AF0D8FD0221002215
:1002600013460EF00FFF00280CD00222002329466F
:1002700011400E920C930AD0012808D183250793D0
:10028000069B5CE0002783251097069B70E0DC4C02
:100290000B9525800F98426B2527D05D03252840BC
:1002A000AC4BD882D05D400804230A931840D54B4C
:1002B0001885D05DC006C00F588500290DD0506844
:1002C00025321278D1070BD1CF4953070A9E32400D
:1002D000DB1719405200184005E00020A08107E01C
:1002E000CA49491C0022A18121461E3124F00CFC80
:1002F0000B98C00706D10020208201200790069BA2
:100300000D9E1BE00F98416B0868CA5D910708D4E9
:10031000BD490A9E16405207D31719407200184073
:1003200002E0BA49491C0022069F0D9E21829E349C
:10033000214624F0E9FB012007903B46B44F3B20C7
:10034000385C002811D01F462AF068FD002802D131
:100350008421AF4A51710E990172AD4A116C8842E5
:100360003B4604D10020106401E00C981090079FD8
:10037000E9B218889A781204821808021D46A54B23
:100380001A4010432880120CAA700F2902D82B465D
:10039000344605E034460221109B0B4310932B4654
:1003A000791E8F410797099EFF2109020140032012
:1003B0000C900002814252D1012081040591964D9A
:1003C0000A9000020290B030089901424CD03346A6
:1003D0002B4030468E4A314627460B938F48C06AE1
:1003E00004284BD30E910020164625F0E1F980B287
:1003F000471D3D460C9885437069294622F0B6F8A2
:10040000324604467069844204D0082010990143A2
:1004100010915461002C2AD0B908E0892746103782
:1004200038181FF06DF9E0893918F279CA7040194F
:10043000E08104201099014310910F98406B103017
:1004400027F028F932463B20305C00280B9B1946E8
:100450000D9FC3D03D200A9911541946BEE7109D47
:10046000A80700D5A2E2A5E23146274613E0852081
:1004700050716B480A9901600D9F0E999079002880
:1004800007D00F98806B0D466649C96822F0A2FD1F
:100490002946069B099E059806404806C50F0E9101
:1004A00008460299084007D03A2229461D460A9B71
:1004B000574CA3542B460D46B40C10990D43089984
:1004C000C9070E9915D0059A0A4012D110951D46FC
:1004D0004C490988042929D11E48C06C4C498A69B5
:1004E000801A0F9A106340204871032000BF00BF9C
:1004F00037E0089800044CD545484079102807D1CA
:10050000404800882E461D4621F098F92B46354676
:1005100019889A781204891800023E4A114008434B
:100520001880080C9870022005432FE00E9A92055F
:1005300012D40B94421E9041CA1F53425341344E71
:100540003A22B25C561EB2411A430243012A71D1CB
:10055000022002E03C20094003201AF04DF82C490B
:1005600048712B4840792E462988AA7812048918A8
:100570000002284A114008432880080CA870022075
:10058000109D0543032000BF00BF3346002407949D
:100590000E99C8030CD50F98406B10302E461D469F
:1005A00027F078F80E992B4635460D9F1A480140E2
:1005B0000798002800D153E1154A382009901056B9
:1005C000002810950B940E9132D404994D78052D86
:1005D00000D9002507210840801E05284ED880003C
:1005E00001A108588746C0462D06000029060000D4
:1005F00079060000750600008106000089060000EB
:100600008E200940062009400A8000000A80FFFF72
:10061000686C0020FF00FF00FFFFFEFFA0110840F4
:1006200030100840686F0020E80727D026252DE00D
:1006300005462BE00229F74E03D13520305C002817
:100640008FD1012007903820305C002800D139E29A
:10065000F14805210160B079002805D00F98806B22
:10066000EE49C96822F0B6FC25F000FD00242B46B7
:10067000109D8DE7E80701D0272507E0252505E037
:1006800001200540263501E06D0825352020105C4D
:10069000918923F0D3FF0646E8B208901AF07CFE59
:1006A000002814D00796BE030127394605F05EFFE7
:1006B00025F036F80E9830420D9712D104988078C4
:1006C00000284ED0D64828F0F7FD074635E0069BB7
:1006D0002AF062F9D34908404121490229F0F4FC8B
:1006E000BDE00F9803991FF007F907460F280999F5
:1006F0005CD83B20C74A105C00280ED03520105C27
:1007000000280AD0515C104638300279079810F062
:1007100011FA002801D17D20C7430F98806BBF4E8E
:10072000F16820F077FABB4A90713A200021115409
:10073000307F800701D029F011FA069B0B9CF8B29C
:10074000102835D2B849002088836EB20899402914
:1007500001D240202843AF4AB44F002E30D4054682
:1007600030E03B20AB4E305C0028069C48D0352062
:10077000305C002844D0079CA7081D371E2138464E
:1007800022F0A8FC781A80009721C9004018703028
:1007900028F092FD07460998315C304638300279DE
:1007A000204610F0C7F90028C7D18227069B0B9C72
:1007B0002AF0F2F839029B4A104029F085FC4FE0FC
:1007C0007F200540E8B278861079002804D02806FA
:1007D00097494140974801603920105C00280AD0B1
:1007E000144626F0CBFAA279B88D9349002A0CD092
:1007F000803108460CE00D9FF803401C109D09E075
:1008000029F01AFE2346074698E78007800E4840E5
:10081000109D0D9F29F0E8FC29F0F6FB022000BF97
:1008200000BF864805210160002E13D408982538A2
:100830008740784A099E905DB8439055049989781D
:1008400000290BD00028069B0B9C09D10198007849
:10085000905505E000206F49099A8854069B0B9C2F
:10086000002C00D19AE01F466A4E2120315C3F20C7
:1008700008400D901AF090FD002820D00A9905F04C
:1008800075FE24F04DFF0F98406B81680020002911
:100890000E900B9067D0099110953C27F55D2AF0DA
:1008A00055FA0146002D19D002984118E0310B91FC
:1008B0005A48008D26F086F90020F0550FE0388860
:1008C000B97809044018F849084041214902014318
:1008D0003980000CB870022005435FE00B91109D39
:1008E0000998817B0A18D17B0F26314007290FD147
:1008F000517C890902290FD001291DD000292CD152
:10090000002631460EF034FB3920EA490E5422E02D
:100910008220E84E707126E0002739460EF028FB51
:100920003520E44A105C002800D154E139201754E6
:1009300084205071164616E00026314607460EF018
:1009400017FB3520DB49085C002800D178E139200D
:100950000E54842048710E4605E039200021D54E02
:100960003154352031542AF051FA403601213246B3
:100970000E9E33460EF086FB074632463446002F65
:1009800009D0781E414241410E4204D141424141C9
:100990001140012911D18320C6494871A80709D502
:1009A0000F98806BCB49C96822F014FB25F05EFBE1
:1009B00029F002F8284611B0F0BD09940A920E966B
:1009C0009720C1000B9808914018703084081D349E
:1009D0001E21204622F07EFB601A84003D20B54E89
:1009E000305C002810952BD035463835E879B14970
:1009F0008E89314623F022FE0B900C203146AD4EFD
:100A000023F01CFE089961180B9A89180C18002015
:100A1000687116E0686C0020A0110840686F002023
:100A200088130000FF00FF008E20094006200940C7
:100A3000D6BE898E40140840318100003010084035
:100A40000834204628F038FC04463520305C002865
:100A50000CD02AF07BF93821715C32463832127999
:100A600010F068F8002801D17D20C4430B94099848
:100A700093498F4E08808D48042545810F99496B15
:100A800025240A5D0C9B1A40C282085D400828405C
:100A90003085085DC006C00F70850E9800280DD007
:100AA000874E486825310A78D1073DD185495307DB
:100AB0002A40DB1719401840520038E00020804ED1
:100AC000B08139E03520305C002800D149E5212093
:100AD000305C2136717809020818B1780904401891
:100AE0007D490140802900D03BE57848072101601D
:100AF00025F0BCFA3C206F49095C0020002900D198
:100B0000CEE0B1780904490D0F9A528804231340AE
:100B10000B4370490B850121C903109A0A430790C2
:100B20002B4615460B9C33E56749491C0022B181D1
:100B300031461E3123F0E8FF0D990A9800280DD0A8
:100B40000F98416B08680A5D91070CD45D49154008
:100B50005207D217114010406A0007E0002030828F
:100B6000109D0B9C0AE05849491C0022109D0B9CCB
:100B7000318231469E3123F0C7FF0D99E0B2102833
:100B80000CD3069A10889178090440182102464B2C
:100B9000184001431180000C90709CE60024B4833F
:100BA000403143484186434E3079002804D008063E
:100BB00042494140404801603920305C002851D012
:100BC00026F0DCF8B2793A48808D4449002A4DD0AD
:100BD000803108464DE039200121115409980468FC
:100BE000002C00D1D7E6A07B0019C17B314007293A
:100BF0000CD1407C3F2809D80999887B0818007CD3
:100C00000B30FC21014020460EF0B2F92AF0FEF82C
:100C10000E94284A4032022421463B460EF032FA16
:100C20003A460746234838300E9B997B5918097C71
:100C30008171099B997B5918097CC1710A9E9EE6B6
:100C4000392001240C543868002800D1A3E62AF08A
:100C5000DDF8184A4032022133460EF013FA0746F7
:100C60000A9A8CE60120C003401C02E08007800E37
:100C7000484029F0B9FA29F0C7F915480521016063
:100C80002AF0CCF8002801D184217171022101726F
:100C9000316C884200D134647F1EF1D110201BE6F4
:100CA000079C0790E3E4C046FF00FF003C2009409A
:100CB00006200940686C002040140840D6BE898E8A
:100CC0008E2009400A8000000A80FFFFA011084022
:100CD00030100840686F002080FF1F003181000045
:100CE000F0B593B004464520800020180E90129174
:100CF0000978182900D932E1DB2040002018109033
:100D00006B20800020180A903120C00020180B9022
:100D1000FF202B22D200A2180C9202460232A21807
:100D20000F922346EC3322468632099222468432C1
:100D30000892274677372646763625466735129A33
:100D4000521C0D928A00119401A4A258119C97463E
:100D50007D0E00000B0F00003B0F0000410F000054
:100D60005F0F00005F0F0000650F00006B0F0000B9
:100D7000BF0F0000D50F0000171000002D1000005D
:100D8000331000005F0F00005F0F00009F10000095
:100D90005F0F00003711000067110000751100009F
:100DA000B50D0000B50D00007D1100005F0F0000C3
:100DB000CD110000129A14290E4603D1687900283B
:100DC00000D166E111465078927812021318C87863
:100DD0000A791202141848798A7912021518C8790A
:100DE000097A09020918152E079600D011E20F9111
:100DF00098B21B2112911B28034600D8129B29216F
:100E0000CA001B28164600D32646FB20FB2B1F4694
:100E100000D307466549FB2B0B4600D833469CB2EE
:100E2000E308292B129E00D33E46944200D8144674
:100E30008C42034600D833468C4200D30C46AEB2F7
:100E40001B2E354600D8129D1B2E164600D30F9E32
:100E5000FB2D2F4600D30746FB2D084600D8304611
:100E600086B2F008292800D31297964200D8164679
:100E70008E42109A00D822E2FB2522E210971298A7
:100E8000811C4078099E3070B01C494D02273A46BB
:100E9000A8470146301D12903A46A8470146B01DAA
:100EA0000F903A46A8470146304608300D903A4622
:100EB000A84701463078400030707088400070804C
:100EC000B0884000B080308900013081089E3046F3
:100ED0003A46A84730882189401A80B2354988426D
:100EE00029D80D9800880F990988491C129A1288F0
:100EF0004A435100884200D86CE201201099C87220
:100F00000021E1830C9908701AE30C9D20466230A1
:100F100005220D9927F0AFFF0146099E30460C309F
:100F2000022227F0A8FFB0892189401A80B2214906
:100F3000884200D870E12820ACE00D980078A9E044
:100F40000D9A0F980078C00700D06BE11A205873F3
:100F5000187B0D21012865D1FF222046A4E10E98BF
:100F6000417260E201209873EAE21D460C9A109BE0
:100F70000A9C0D9800780E3808280F9E00D9DFE2F1
:100F8000800001A108588746B90F0000AD14000089
:100F90004115000041150000BB1400004115000080
:100FA000C114000041150000CD1400009042000063
:100FB000778E0200FE7F000003202875C0E22046E5
:100FC0000D991AF019FC6879002862D0204619F0B2
:100FD00003FC2BE220460D991AF00EFC0F98407886
:100FE00000070B9A01D4FC485060FC48407880060A
:100FF00000D4A5E210881B280BD150881B2808D1EB
:101000002920C0009188814203D1D188814200D13A
:1010100096E2142106E000202870687118800120F3
:1010200018730B2120461CF0E9FA89E20120D873DD
:1010300086E212990F9E307C012816D08A1C4878CF
:101040000E9908708B204000201802241146224679
:1010500027F011FF01462320C000119A10182246E4
:10106000119C27F008FF012030746879002810D007
:10107000B07C002800D063E2707C002800D05FE2E2
:1010800020461BF093FE002800D1D2E10120B0746D
:1010900056E23D200E9908720120C87150E2129963
:1010A0000D9610970C9F0F980078800700D4B7E139
:1010B00048788A78120210180B903882C8780A791A
:1010C000120210180A90788248798B791B021B183B
:1010D000BB82C8790C7A24022618FE824D7A3D76AE
:1010E000887ACC7A2402201878830C7B4A7B1202FF
:1010F0001219BA838A7BCC7B2402A218FA830A7C59
:101100004C7C2402A2183A848A7CCC7C2402A2184B
:101110007A840A7D4C7D2402A218BA848A7DC97D16
:1011200009028918F984AE490978890600D559E180
:101130001A25119C70E1109D8230201812994A786E
:1011400028230C9CE254897801703078012800D063
:10115000ADE0387801460F39022900D370E1264608
:1011600001206073ECE10F980078C00600D5A2E082
:10117000122056E100200C990872E1E11299109DAD
:101180000A9B0F9840780922104200D120E148784C
:101190008A7802400720104048702F46E9780140C5
:1011A000697000D155E1481E084200D193E103293E
:1011B0001D4600D993E102200B9E020600D104E2F5
:1011C000084200D08DE1C0B24008F6E70D9D3B46D5
:1011D0000A9E12994A7888788242109F08D1072087
:1011E0001040287000D145E1521E024200D1A9E111
:1011F00018211E2520462A4622F08AFDA1790022C8
:101200002846134611F034FFB87840210143B970E5
:1012100096E10B9E109A55E00120B0720021E18307
:1012200028708DE100202870687120469830129057
:101230000120069318742046B030F24D264608244B
:1012400011462246A84701463046B8300222A84738
:1012500001463746A0373546A83528462246E94B91
:10126000984710902846214626F00EFE9C3604240E
:10127000304610992246E34B98473046214626F0E7
:1012800003FE384627F088FF129827F021FBDE483E
:10129000018880220A4302800698007B04210128ED
:1012A00000D0D4E0FF22119818F0A8FA48E10020FD
:1012B00027F04AFC44E120461FF0ACF9B6E0129D4D
:1012C00031460B9E7381F4813581B18188B2F188FA
:1012D000814200D301461078A922120191420D46A5
:1012E00000D81546042800D00D46F78AF582042858
:1012F0000DD111981EF0A4FC0246B08A111A481EA6
:1013000081411291B2827389109800780AE0B28804
:10131000A1B28A4200D30A46B18A541A611E8C4196
:101320001294B282EC1B611E8C41358899B28D42B9
:1013300000D30D460B9E318A6B1A591E8B410F93B9
:101340003582109F397901230E931DF02BFE8542C3
:1013500001D2308A04E038783979B28A29F087FEE0
:1013600012990C430A9D688073883089834200D3A8
:1013700003460F980443718A581A421E90417382A3
:101380008B4203D9297880220A432A7004430798A4
:10139000142814D1002C07D011988079318AB28A90
:1013A000F48A009413F0B4FA1521119818F065FB33
:1013B000002800D0C4E0914800780E993CE02878DD
:1013C000002C01D008210843202101432970B7E0F7
:1013D000162026E03B205DE64808480822720020DF
:1013E000A873002039461C311293119B1A8980B2D0
:1013F000B4B200941C4601920295039004910B989C
:1014000081B20A9882B2129883B2204616F049FC43
:10141000002800D1AEE01E250F98007840071BD4AD
:101420000F200E99487220461DF071FF002800D051
:1014300086E0724800780121890312F01DFF7FE0E9
:1014400016287DD1A87801210143A97078E0119870
:1014500066E038781D4643E00F2120462A4622F0F8
:1014600057FCA1797A8ABB8AF88A009028461EF038
:1014700019FF65E01878162805D1A1793A7800207F
:10148000134611F0F5FD0220B07101207871387813
:1014900030713C460B9F3D8A2179BA8A0123129311
:1014A0001DF080FD85423ED2388A41E00120107354
:1014B0003078FD210140317042E0002010723FE0A1
:1014C0002646207812210143217039E098781221B4
:1014D0000143997034E008461D460B9E02E004204B
:1014E0000B9E7870C1B2042904D120461EF0A8FBDF
:1014F000B0827878C0B227F04CF82871348A3979F4
:10150000B28A29F0B4FD844201D2308A04E02879FD
:101510003979B28A29F0ABFD119A688017211046FB
:1015200016F0C8F90CE030792179BA8A29F09FFDCC
:101530000C9A129B7080A07840210143A170137017
:1015400013B0F0BD7870CA78097909028918318121
:101550002289891A89B22A4A914200D9EBE40121F1
:10156000B171042894D120461EF06AFB0B99888241
:1015700078788DE77B8A099DAB80B98AE980F88A03
:10158000288102222A7000226A80A28ED41D089D22
:101590002C80119C648E6408A342119C08D1914256
:1015A00006D1E18E0909884202D110212046B7E711
:1015B0000D9800780128109909D108780F2806D1D4
:1015C000FC2120461CF01AF80BE008468AE708794F
:1015D000002802D008781A280CD1FC21204616F0E9
:1015E00069F9A079398A7A8ABB8AFC8A009412F058
:1015F00083F8A5E70F204872FE2113E5D27400207E
:10160000FE7F0000778E0200C6740020F0B591B016
:10161000044680780025102800D9A0E3800001A1AD
:1016200008588746691600005F1D00005F1D000016
:101630005F1D00005F1D0000BD160000D7170000F1
:101640005F1D00005F1D000003180000311800003E
:101650003D1800006B1800005F1D0000B518000069
:10166000071900004B1D00006078002800D076E3C9
:1016700028F0A2FF079029F085F8089025F0F2FAEB
:101680000BAC20700226102730463946079A974B3C
:10169000984703203946089A944FB84704200121FF
:1016A0002246B84720783043032800D057E3012072
:1016B00019F022FD024606200146B6E060780028B7
:1016C00000D04CE30126E178201D62890892277B37
:1016D00000250095314009AA2B4611F0A7FF0028EC
:1016E0006DD109A8007826F0CFFC04463E46083E9E
:1016F000701E86417E48807D800029F0DBFB0790CC
:10170000002800D1D6E109A80690017878488078B1
:10171000801E4242424100920898059422463B4670
:101720001CF097F80BAC002714222046394628F00D
:101730008EFB06980078062106914843243010213C
:10174000224627F09BFA002818D10BA8FF2110226F
:1017500026F02EFF002811D109A8017806984843E9
:1017600025300BAC22461032042127F087FA0121E4
:1017700005980140089822461EF0CCFC09A8007884
:101780005321890040185A49897D8900079A27F01A
:1017900075FA002800D191E15548C07D002807D195
:1017A0000598800704D553480178089825F07AF801
:1017B00009A800781CF0EEFA079829F083FB002EA8
:1017C00000D1CCE24A488078022800D0C7E20898CD
:1017D0001CF060F9C3E2A08821F0DCFC29F062F97A
:1017E000002800D0BBE2424C607B012800D0D6E04C
:1017F00025F0BCFF00216173606A227D28F027FB81
:10180000D4E0201DE17800230093012529400BAA94
:1018100011F00CFF002800D0A1E20BA801780620EF
:10182000484325300C340421224627F01DFE96E261
:101830006078002800D1A0E000256AE2012528F0A8
:10184000B3FB002800D18AE22948C06A002800D1F1
:1018500090E00668002E00D18CE0E01C6189227BBC
:10186000637B24690094B04779E2A588277B2846EA
:1018700020F048FF002800D14DE1044628F094FBF9
:10188000002800D047E1A01D6179002300930126C4
:1018900031400BAA11F0CAFE002800D1CEE0144856
:1018A0008078002800D100E161790022284614F0F8
:1018B0004BFA30E16078062800D0E7E0A08820F0FD
:1018C00021FF002800D1E1E00949497C491E032994
:1018D00000D9DBE0890001A251588F46F9180000B9
:1018E0007D1A0000731A0000871A00006994020034
:1018F000987E002033720020A38841790022184688
:1019000014F022FAC2E0FD4FF86A002806D04368BE
:10191000002B03D0A08800210A469847B978A088F8
:1019200000292FD020F0EEFE002800D117E2064655
:10193000A07AC00715D0B01D727900230093012151
:1019400011401A46089311F071FE002809D07079F1
:10195000022806D3A08953218900B431084200D15E
:10196000C2E0B87B022812D1A07A00070FD4A08869
:10197000032109E06089012106E0A079C0071BD19D
:101980000025CBE10125052126F05DFDE7E10125DC
:10199000A08808347179224614F0D6F9DFE1A07CE2
:1019A000002839D013F040FC0020A074502025F00E
:1019B00035FA1EF017FDD2E109A8002508262946B0
:1019C000324628F044FAA08820F09CFE002845D03A
:1019D00007466069002815D006970790113000214E
:1019E0000622089026F0E4FD002800D1ADE0002793
:1019F00006220798394626F0DBFD002800D18CE04E
:101A00006761069F78790121014009A88171B91D9C
:101A1000062227F0F9FCBDE0207D0026C1B28E42EF
:101A2000C4D2616A895D012906D1F0B20CF090FD43
:101A3000606A00218155207D761CEFE70BA80078B5
:101A400026F022FB02460C2007400C2F52D0082F14
:101A500056D0042F58D1D00756D125E726F004FBE5
:101A6000002800D1A7E0D0480078042112F004FC3F
:101A7000A1E0CF4800210A4602F01AFEA088052105
:101A80001EF026FF02E0A08821F0F8FF0125C748DC
:101A9000C06A002800D162E14368002B00D15EE1FA
:101AA000A08862780221984759E10521284626F04E
:101AB000CAFC30E0042027F047F850E1079C20469C
:101AC00026F0F2FAB948807DC1B28F4200D363E6B6
:101AD0002188002905D0A278089826F0C3FCB348D5
:101AE000807D7F1C241DEFE7A088032126F0ABFC3E
:101AF000089D34E1D00700D1D6E6100704D4D3E620
:101B00000920024200D1CFE60BA80178A37C009601
:101B100028461BF09EFE012521E105960798007CD2
:101B20000121014007913E46761C089806700097F7
:101B300007993A463B4611F079FD002801D130065D
:101B4000F2D13006059E00D15AE76269002A069F4D
:101B500020D00596107C0121014009A881710892CE
:101B6000164611360622314627F04EFC78790128B8
:101B700005D138460C30B91D062227F045FCB81DAA
:101B80000622314627F040FC0898007C02210143E0
:101B90007971059EA1793879FD2202404808022317
:101BA0000340D0183871090702D4DF21084001E052
:101BB000202108433871A0794107C90F09AAD379B8
:101BC00006401E430E43D6716169002922D00BAE38
:101BD000102730463A4627F017FC3046394626F0A3
:101BE00053F9744800780D27734EC1B28D4211D25B
:101BF0003168C9190A460D3A1278FF2A07D00BA896
:101C0000102226F0F1FA012805D06A4800786D1CF0
:101C10001E37EAE7FF2509A881790026009610AA59
:101C2000334611F003FDFF2D1DD034281BD15F4832
:101C3000C07C012864D0002815D15F4801681E22AD
:101C40006A438818401C895C0025009510AA2B4621
:101C500011F0ECFC002806D110A800780CF078FCFC
:101C6000002800D18AE009A88179009610AA33469D
:101C700011F0DCFC002824D021F06CFA10A90870C7
:101C800010A800784949097D884218D2A2682546E3
:101C90000C352ACD0F69009501910297039609A989
:101CA0000CF026F80546A08818F0D8F8002D59D079
:101CB00010A800780CF04CFC1EF094FB25E01525D4
:101CC00023E060690028DBD010A801780620484393
:101CD000233010210BAA26F0D1FF0028D0D10BA869
:101CE000FF21102226F064FC0028C9D109A98A79B5
:101CF0000120104026F060FDC2E7C046987E00201B
:101D0000A08805211EF0E4FD0125A08821F042FAFB
:101D100060780B2802D1A08821F0B0FE234EF06A33
:101D2000002812D04368002B0FD0A08862780121D0
:101D300098476078002808D1A079C00705D0F06ADC
:101D40004368A08803212A469847012526F08CF98C
:101D5000002804D014480078042112F08DFA284697
:101D600011B0F0BD1148417DA088002902D021F0BA
:101D700011FA01E01FF05EFE3546C9E71EF032FBA6
:101D800021F0E8F910A90870A1680891E1682369B9
:101D9000626900292F4600D00F69009201910297D5
:101DA000039509A9089A7BE733720020987E0020EA
:101DB00009040000FE740020A0740020F0B593B068
:101DC0000546002801D129F0B3F90024002D00D1E7
:101DD00069E20A94FF206B212D22034662334524D9
:101DE0008900D200EE18A30004460234691812914B
:101DF000A9180E91E918089129190B912C46EC3479
:101E000029467C3110912F4677372946763111913A
:101E10002A4667320D920A30281809900C96701CD9
:101E200002902846DC3005902846A03004902846D1
:101E3000CC3003902846B03007902846B830069042
:101E40001D4E0F943879002800D12BE23878811E7E
:101E5000152947D8880002A10858129A8746C0461B
:101E6000FF210000F71E0000BD1E0000FD1E000047
:101E70002B1F00007F1F0000F71E00008D1F0000B9
:101E8000F71E0000A31F0000BB1F0000E11F0000A1
:101E9000E91F00000B2000002F200000752000002B
:101EA00097200000F71E0000A3200000F71E00008E
:101EB000BF200000E52000006871002028F01EFF10
:101EC00000D0ADE1F07A002800D1A0E100200D990A
:101ED0004871FC2129F03EF8A8790799069A11F07B
:101EE000EBFFAFE7FD2800D108E1FC2800D1D9E1E4
:101EF000FE2800D1E4E129F01BF9A3E728F0FEFE5B
:101F000000D003E1F07A002809D001211098017671
:101F1000A8790A4629F081F800206060A060A07BC3
:101F2000012800D073E1062144E028F0E7FE00D04C
:101F30007AE1F07A002800D169E1688CE8832846CC
:101F40001BF088FF012428F03DFF74710F9C217B5A
:101F50000B98027810201040012900D027E10028BA
:101F600008D000200C99087048780899896C4908B5
:101F70001AF050FFA879002117F000FB26E128464F
:101F80001DF0C5F9012800D130E18BE128F0B6FE43
:101F900000D04DE1F07A002800D138E1688CE88368
:101FA00024E128F0ABFE00D0C0E0E07B012800D0A7
:101FB0002DE1FC2128F0CEFF44E728F09FFE00D061
:101FC0003AE10B99087C012800D06FE1487C012898
:101FD00000D00BE128F006FA00201BF0B1F905E172
:101FE00028F08CFE4AD02EE128F088FE00D02EE1A9
:101FF000207D032800D1D2E0022800D093E1A97906
:102000000020099A19F0C4FEF0E028F077FE00D015
:1020100028E10C9C2079012800D095E00E98007EE4
:102020000F2801D029F084F80020207111E028F059
:1020300065FE00D01AE10C980079012800D092E0EA
:102040000E98007E0F2801D029F072F800200C991C
:1020500008710E98407EA979109CE2895208238A63
:10206000648A2409009412F01BFE28461BF0F2FE3D
:102070000F9CE7E628F042FE00D0FBE0F07A002853
:1020800007D0002228F020FB28F09CFE7471BA4E85
:102090000F9CB07A69E028F031FE00D0EEE0F07AD3
:1020A00063E028F02BFE00D0ECE0107881065FD4CE
:1020B000810700D4ABE0FD21084010706BE028F0F0
:1020C0001DFE00D0E3E0107B410613D4C10700D011
:1020D00082E0810700D430E1FD2108401073A97926
:1020E0001A207FE028F00AFE00D0D2E0107B4106E3
:1020F00000D48CE0BF210840107377E0109801797C
:1021000028F028FF0120119908709BE6207801280B
:1021100000D1FBE06078002800D1C3E00598049965
:10212000039A1DF06FFA012020708BE628461AF002
:1021300009FE012800D0B5E00022E27328F0C4FABD
:10214000119804700F9C7DE6E078012852D10020A0
:10215000E070A979109CE0894208238A608A00090E
:1021600000901A207FE71098807900283ED14EE039
:10217000DF210140117001070DD5D72108401299C8
:102180000870A8790E9C218EA28E638EE48E009436
:102190000F9C12F0BDFB00200E99887726E0A979EC
:1021A0001A20099A19F0F4FD002020751EE000287D
:1021B00007D00898806C420870482946029B28F096
:1021C0001DFBA8790021012216F094FA6A4E002026
:1021D00020732074E08135E6FE21084010730E98CC
:1021E000407EA9790022134610F042FF28461BF0DA
:1021F00031FE27E610988079002808D035E728F0CE
:102200007DFD7DD1B07A002801D0162103E028F0B1
:10221000DBF848D12221284625F0ADFC012442E01C
:10222000284615F0FFF838E028461DF033FD34E06D
:10223000284618F0D1FA30E001200B99887428461E
:102240001AF0B4FD29E0284620F0C2FA25E028461D
:102250001AF026F811990870109908884880012012
:1022600020751FE0284616F03DFF16E0284616F0C0
:102270007BFF12E028461BF07DFE0EE028461EF094
:10228000A1F90AE01421284617F0F7FB05E0162112
:1022900000E01721284612F069F911990870109989
:1022A000088848800A9C204613B0F0BD28F08CF8BE
:1022B000F9D128F097F8222420461BF041F846E097
:1022C0001098017908460C38082843D8800001A2EC
:1022D00010588746F922000055230000F92200001B
:1022E0005F23000055230000552300005523000004
:1022F00055230000F922000028F02CFE012002E006
:1023000028461BF066FE11990870CBE7284621F09D
:102310005CF901280A9CC6D100240F98847301201F
:1023200011990870BFE728F04FF8BCD1A979222491
:102330002046099A19F02CFD09E028F045F8B2D1A1
:10234000A979222400222046134610F091FE284647
:10235000214661E70024204626F0F6FBA3E7FC2196
:1023600028F0F8FDA8790E9C21886288A388E4886B
:10237000009411F0C1F995E768710020559F0100A4
:10238000F0B591B00127384622F098FE012800D020
:1023900093E22E4E307828F0A3FA002800D18CE288
:1023A000054600200E902872281D13F01FFD04F032
:1023B0006FFB002853D00446284668300C90FF205D
:1023C0000690E23020180B905520800020180D90C8
:1023D000A72040003946271820462E30109009913A
:1023E00061710720079017F0EAFE19494878401CF0
:1023F0004870A079A872307816490870402010F013
:10240000B3FB2060686DA96D4978C9060F952AD481
:102410006521890061180A914C30002115F072F98C
:1024200006466A6D116B2068C160EF239B00D35A8A
:1024300003221A40920001A39A589746592400009B
:10244000812400008D24000093240000D874002013
:1024500098730020D77400200B22D20112E0812053
:1024600028F020FD29E24C30002115F04BF90646FA
:10247000686D006B0B21C90140182168C86011E02C
:102480002D2212018918C160954806E0B5229201FB
:1024900000E0944A8918C160934800880D99088724
:1024A0000A990880B0794006C10F29200A90C0001F
:1024B00020183970314608318C4D06220492A84705
:1024C0000C9800780B99087020462430314614315E
:1024D0000422A847204628303146183103220592AD
:1024E000A847F07E109908702046303031461C31E4
:1024F000374602263246F44B98472046323039465A
:102500001E313246F04DA84720463430394620313E
:102510003246A847A08E608420463630089722377E
:1025200039460B963246A847109908784000087043
:10253000208E40002086608E40006086E18E09017A
:10254000E18689B2628C521C83B253435A00914295
:1025500000D8A9E1000400D1A6E16F20DB2103919E
:1025600080000C9026462C362046109926F002F862
:1025700005200290A081204625F00EFB27466237F9
:10258000089D294624313846029A26F03DFF0A98D4
:10259000285C4009307025F09DF960820F9E718D96
:1025A000401A0D99C8800A98285C1F210140109894
:1025B0008173204639461EF037FCB06D4078C00666
:1025C00003D5C248006828F035FC039840000A9003
:1025D0000C9820180290BE480168A27938200C900F
:1025E00042438818BB4B8B50BB490E9F47608160AC
:1025F0000C302C21039128F0B3F8B8480068A17979
:102600001C26714345181221284628F0A9F80B20F2
:10261000019068826F61AF61AD4BB0480068A179ED
:1026200037464E4380191A680C9D6943521810634F
:1026300018684018AA4941630F98806D4078C00619
:1026400003D4AA49029801600EE0029AA548807856
:10265000400601D4116807E008988079800601D50A
:10266000A24900E0A04911600A9825182046884731
:10267000014697480268A0790C9B4343D218039BFC
:10268000D154109A1173917AD1720F9EB16D49781D
:10269000C9060CD4726D2D21505CEF218900565A69
:1026A000B107CA173106890E22D0099921E02936CF
:1026B0002978002904D1002026F046FAA07929784B
:1026C0002A791EF0F3FA204628F085FC804800683D
:1026D000A1790C9A5143401831782D22815424E07D
:1026E000C0740020B80F0000067400200994020096
:1026F00002210A402A71054628F06CF9002800D111
:10270000D2E005980640204631461FF043FB0028E2
:1027100000D1C9E06E480068A1790C9A5143401875
:10272000734909782A4626F063FA6C4E3168A0791D
:102730003A4642438918099A0A74626A4A61A26A4F
:102740008A6119F077FD3068A1794F43C019694A51
:10275000136814254D43585110684019A06630681D
:10276000C019083020675E4DE81C152127F0F8FFDE
:102770000E9828807F20A8705F4800780426314694
:1027800011F07AFD0F99886D4078C0060B9A07D436
:10279000486DEF218900405A800700D5049E3246DB
:1027A000208E1618A661608A70431921090120F055
:1027B00091FC411C61612168CA68504D6E43B2189A
:1027C0004F4BD218101A424F3A68A3790C9E7343AC
:1027D000D218D06188609088099B1843FE218843F5
:1027E00090803868A17971434718FB71F8692668B1
:1027F0003061606940001099097869434018019977
:10280000C9014018232109014018F88580B20D99AB
:102810000860618E3B48027C437C1B029A18837CD3
:10282000C07C0002C018000480180068484364217E
:1028300020F050FC6843324940189130B86277600C
:1028400028F0F5FB002809D00698023020180078FF
:10285000000703D50E2120461AF0D0FE2A4807991A
:102860000170A079174988700F9D28461EF04EFB15
:10287000A279002128461AF0F3FE2068234941611D
:10288000134B1868A1790C9D69434018204A826156
:10289000186840182121090201611868A17969436B
:1028A00040181621416108E013480078802111F09A
:1028B000E3FC3B21204625F05EF902F0B5F811B0AB
:1028C000F0BDC0469873002009940200A087002044
:1028D0007074002004100000FD32000078740020A5
:1028E0006871002022720020F1FA010099120200A2
:1028F000DB740020BC740020D2740020C4090000E6
:10290000BFFAFFFFFCEE0200F174002045FB01005E
:1029100015DC0100F0B5A5B00446E8484068002881
:1029200002D08047002842D00321FD4BFD480078AB
:10293000421E1394002C0E9200D00122090416911D
:1029400059780F919D78DA731F4618370024159433
:102950001495C0B2844222D2A5421BD0E5B2002118
:1029600017AA04262846334626F046FC17981699DF
:10297000084202D01599491C15913043C0B27C28F9
:1029800006D10621F8262846324626F041FC3E7044
:10299000E34B149D641CE34800780C37D9E7159984
:1029A000C9B2401E884204D15879002801D10020C4
:1029B0002AE201200C901398002800D110200990E1
:1029C0000C98C00212900020089005900F9D0E9C5C
:1029D0000899200400D1E5E11591D87B002801D1A8
:1029E0000120D873EEB2002717AA042330463946D7
:1029F00026F002FC17981399002913D01699084263
:102A000013D0701CC749097820F064FB0D46C44BF5
:102A1000129818825973D87B401ED873641E15997A
:102A2000491CD6E70B970F9D02E00E9415990B9168
:102A30000F95C0B2702804D00F98C0B2702122F058
:102A400083F91498C7B2002517AE042338462946E7
:102A5000324626F0D1FB3078FE2803D0FE213846DE
:102A600022F072F90621FE263846324626F0D0FBC7
:102A70000C2210467843E74C2146163110970F1868
:102A8000B81C0790BE7014982073129820820F987B
:102A90006073C6B21192104670430818C0880D903A
:102AA0006082FF20A073A5827D208100DC48049114
:102AB00027F056FED6480570E07BD84971180818F3
:102AC000D5490E7800B231461CF0A0FB0F9B224680
:102AD0001491B81D0690F8880A90109F1595F6B2CB
:102AE0000D99DCB2BC4200D1CAE0E80700D0DDE0BD
:102AF0008FB2162F19D81598002803D0119860436B
:102B0000101881831498C0B28442109F00D1D7E07E
:102B1000601C28F0C5FABF4A0B4608461199484385
:102B20001018818B00251595DBE7B948007800283F
:102B300000D03CE70F930D91CE1FB1B218AD2046E7
:102B40002A4619F091F9E98908461030B8420CD8A4
:102B5000A87A962809D1751A18A8427AA8B20E4602
:102B600023461BF0FCFD002834D00D99491E084671
:102B7000A84A0F9B0B9E109F0D460D9080B2162801
:102B800000D80DE1362803D80D980646163E01E020
:102B900020260D98801BB3B20D9081B21DAA20464D
:102BA00026F02AFB9B4A0F9B2946300408D0B0B27E
:102BB0001DA94018401E0078962804D0761EF3E721
:102BC0000B9E0D98D9E70D9830180D90002592486E
:102BD000067884E7029518A8C07A0025C10707D1B6
:102BE00080078C4A0F9B109F08D402980D90EEE747
:102BF00002980D90874A0F9B109FE8E7F61D0A98F0
:102C000080B2B1B2091812980191814201D90C9D8C
:102C1000DDE77F480078029F310420D000281ED1D4
:102C20000D96B6B20498864200D3049EB9B22046EF
:102C300003977B4A334626F0DFFA0A9FB9B2109811
:102C4000774A334621F0DEFC71490870BF190A97B4
:102C5000039FBF190D998E1B6E4A0F9BDCE71598D9
:102C6000401C1590019CA0B21299884204D1029890
:102C70000D900A940C9DBFE702980D900A94BBE753
:102C800063480078002800D091E6644830180019A5
:102C900000B231461CF0BAFA5E4A0B46C8B211992E
:102CA00048431018818B139C0B9E11E01598002847
:102CB00007D0119844431019818302E064800020FA
:102CC000149B139C0B9E52480078002800D06EE69F
:102CD00008460A9911829082937306980180517B6D
:102CE0001220125E0123384623F01CFF4948817BE5
:102CF0001420484A125E0223384623F013FF454849
:102D0000008A1299081A002C04D00999884201DB24
:102D10000C9905910999884206DB7C2105E0C046A3
:102D20000C6B0020D37400207821384622F00CF878
:102D30000EF058FB05463846364FF97B491BF973B0
:102D40000621FC24224626F063FA07980470B8781E
:102D5000B1B26918081830490E7828F0A1F9B97095
:102D60001491481CC0B228F09BF97970B97B119876
:102D700048433818808B102804D1481C28F090F95B
:102D8000244B00E03B460F91139800280C9801D08B
:102D90000598C0430E99491B0E91C00702D015E655
:102DA000139C90E77C2022F033FD0446FF281AD1C3
:102DB0007E2022F02DFD0446FF2814D115494C78C1
:102DC0000C2060430818807DFF2808D088781249BD
:102DD00009784018401E1CF019FA0C4603E07E21C9
:102DE000204621F0B1FF0B4DEC70E0B20C214143C5
:102DF0006818808BE880A878FE2121F0A5FF0020CC
:102E00006871288A1299081A00B225B0F0BDC04630
:102E1000648000200C6B0020D3740020FFFF0000B2
:102E2000985E0020F0B59DB00446FC4E3078FC4D15
:102E30002870032800D025E100203070287011A8E8
:102E400027F0F4FC002800D01AE101200E90119028
:102E50002846243011A91FF087FD002800D00FE17B
:102E60000E98C0020D90F44F5E21384627F078FC92
:102E70000C370A21FF2238460C9227F00FFB23F073
:102E800063F90020109021461EF048FCA8602946F6
:102E90000C3127F02FFD2C696D692046294620F062
:102EA00019F9C2B2062A00D30622E3480270E34FA2
:102EB0003A700D98854200D0E2E0D002844200D200
:102EC000DEE0DC488068002800D1D9E0DA49109EB5
:102ED0004E710C9BCB700E98C002C8800696099666
:102EE00007960596049608960A9601930393029313
:102EF000D1B28E4200D3C7E0F4B200251CAA04234D
:102F00002046294626F078F91BAA20460F95294627
:102F1000F54DA84701271AAA20463946A84702219D
:102F200019AA2046A8471C99C8B20246703A0E2A30
:102F300004D83B469340ED4A134203D10246FE3A81
:102F4000022A03D28A0CEA4B9A421FD0204611F083
:102F500001FFE1490870002800D0CCE0354600268A
:102F60001CAA04232046314626F046F91BAA204617
:102F700031462E46DC4DA84701211AAA2046A84713
:102F8000022119AA2046A8471C99C8B20C22109603
:102F90007243D24B9E183346163318700A0AF275E4
:102FA0008903890F71761BA989783176FD2801D9AB
:102FB000102127E01BA90988CE4A914222D10B9308
:102FC0000F9814900D9DA8B2051FA9B214AA04234E
:102FD000204626F011F91498411C03D12946C64A0F
:102FE0001140F0D139460B9BFAB2042A06D8C2B27E
:102FF000FF2A00D03946000A7F1CF5E7C8B228181E
:1030000081B21878B1831AA98978B1761A99F183B7
:1030100019A98978F17619993184702810D0782807
:10302000AF4F109E12D07C2814D07E2817D0FE28D7
:103030001BD0FF281ED10698401C069002961CE06B
:103040000898401C0890A64F109E16E00498401C5B
:10305000049012E00598401C059003960DE0B0B274
:1030600001900798401C079007E00998401C0990C0
:103070000C9602E00A98401C0A90761C3A7837E7D2
:10308000012030701DB0F0BD0A9800060BD10998E0
:10309000C0B2012807D80898C0B2012803D8079801
:1030A000C0B2012810D98F48042101700024D1B288
:1030B000E0B2884210D211F04DFE874A11780143E8
:1030C0001170641C3A78F2E7D4B20698C0B2A042FC
:1030D00014D18448002101700020804C6070511E82
:1030E000A170E070A18BE1807E2121F02DFEA078FF
:1030F000FE2121F029FE78480078C3E708980006F1
:1031000022D00998000604D10698000602980C9077
:1031100073D0744802220270704E0C9CB470A0B23E
:10312000401C1FF0D7FF7170E4B2204611F012FE70
:1031300069490870FE21204621F006FE0E98707144
:103140000020FFF7E7FBD6E70998000619D065488D
:103150000E9A0270614C0C98A07080B2401C1FF057
:10316000B9FF6170039880B2FF2819D10198FF2838
:103170004AD15A4AD1700C2048431018808BD08015
:10318000B9E70598049908430006554F8BD023F002
:10319000B5FCA04200D38EE05248032101704FE0FD
:1031A0004E4A0399D1700C2141435018808BD08036
:1031B0001828A0D3C11F0398C0B289B214AC22460C
:1031C00018F052FEE07A4007BAD54449C878C98859
:1031D00014ACE289891AC91F0022009289B2032324
:1031E000224608F02DF8002885D1A189002982D037
:1031F00014A8007C1FF0AEFE7DE723F07FFC394968
:10320000A0420FD306200EE03449019ACA700C2068
:1032100050430818808BC8806DE7C0467F8200202D
:103220006480002003200870032809D0062852D0AB
:1032300061E7C046648000200C6B0020D37400203E
:1032400023F05CFC0446254E30730C252846604371
:103250003018817E7173C07EB0730EF0C3F8001910
:103260001F490C7821461FF035FFB170481CC0B2D1
:1032700021461FF02FFF71707C2022F0C9FAFF2831
:1032800010D17E2022F0C4FAFF280BD1FF2022F0BB
:10329000BFFAFF2806D1782022F0BAFAFF2801D120
:1032A0000E4840780D49C870C0B245434819808B1C
:1032B000C88088781CE70698000609D007488078FF
:1032C000FE2121F041FD0648017802980C903EE76E
:1032D000044806210170FEE7648000200C6B00208A
:1032E000D3740020E074002079A002000151000096
:1032F00083250000FFFF0000FCFF0000F0B587B051
:1033000016460546041D50040595029442D40191C9
:10331000C805C00E00D188E00120009000043146AD
:103320008143039100200690854C8648006804285C
:1033300000D286E00496002022F03AFA80B2451DC1
:103340002F4681480740606939461FF00FF906464D
:103350006069864204D0082006990143069166619F
:10336000002E67D0A908F0893546103528181CF0C2
:10337000C7F9F0892918E279CA70C019F0810420D0
:10338000069901430691059D286B083024F082F9C7
:10339000039ECAE704962E462C36FC4C24F0B4F863
:1033A00003902F6B7969B869009121600002F5499B
:1033B0000860F548808DF64CE08123F0EFFBF24980
:1033C000888600200190EE4908820697788AED49A8
:1033D000888010206071688823F0F4FB0446307800
:1033E00017F0DAFF29468227002821D00546084633
:1033F0002D30007821F0B2F8002800D0B8E0032C7E
:1034000000D0B4E00698007C41424141284603F0D8
:10341000ADF822F085F9DA48019AC285B056C1B2FA
:10342000402900D2D5E01146D5E00020069011E0F9
:103430000D469EE085206071D84800990160059D89
:10344000049EA079002804D0686BD249C96819F09D
:10345000A9FF029C0198800431D50496CC4E708956
:10346000CF494968411A4220375A0391B94225D2BF
:103470004420345A286B24F08FF8002810D0022101
:1034800001728189491DC74A11407F1AB16B884278
:1034900002D10020B063F063641E0398B842E9D300
:1034A000039887420DD1002C0BD4383603987081D5
:1034B000B481102006990143029C09E0049E0699FC
:1034C0000AE084207071B54801210160029C0699D0
:1034D000B448001D049E06437006C70F0F43012029
:1034E000C503681C0199014238D0032000BF00BF0A
:1034F000A44880880599096B48820224A448407931
:10350000102825D1019828409F4800881ED1411ECF
:10351000062900D9A1E01320890001A251588F4645
:10352000513500003D350000573600005B36000085
:103530005B3600005F36000063360000142007E0B1
:10354000686C0020CC110840FCFF01001EF076F9E9
:103550002743029C2178000208182080B807059DA7
:1035600014D5686B8B49C96819F01CFF0EE027461B
:10357000059D049EF8B20F2801D8002000E001202C
:10358000029C21783A028918218047006078000265
:1035900003210902884213D1F00306D5286B0830B5
:1035A00024F078F80120000486437E48001D06427E
:1035B00006D0286B764A38320023D9430BF062FDDF
:1035C000B80703D522F052FD26F0F6F9384607B0C9
:1035D000F0BD402211436E4A7F240028059D049EC1
:1035E00001D4084600E02040674948861179002947
:1035F00004D000060099484064490860FF206149F2
:103600008882284603991CF077F907460F28B1D81D
:10361000686B002500282946069F594B44D05D4918
:10362000C96899610021417084700278D2071CD169
:10363000544AD185118651869186D186118751874A
:103640009187D187198059809980D98001758160CF
:10365000C160016124E015207AE7102078E741205D
:1036600076E7022016F0C8FF72E7017A454AD18555
:10367000417A1186817A5186C17A9186017BD18601
:10368000417B1187817B5187C17B9187017CD187E9
:10369000417C1980817C5980C17C9980017DD980D1
:1036A0000078022101404908394CA1710298007844
:1036B0000128284604D13748C0680599C969081A05
:1036C000019023F05BFB22F0E7FC20816561059807
:1036D000006B083023F0DEFF012624F0F5FB60814B
:1036E000387C00282B4604D0788A182101404B42B0
:1036F0004B41360422463832A563E5631572558185
:1037000095810221384603920BF0BCFCA2791E4839
:10371000808D2149002A02D08031084602E040070E
:10372000400E4840059D0499B1430E4626F05CFDCD
:10373000387C002806D0E98D01984018012803DB69
:10374000032702E004240CE01327002902D00128FB
:1037500000DA0FE7002900D108460949488103240F
:10376000069F26F051FC022000BF00BF0B480460FA
:103770000023D9433846039A0BF084FC0327F9E66B
:103780007C2009403C2009400620094040140840A4
:10379000686C0020686F002071A1000030100840A4
:1037A000CC110840FCFF0100F0B591B00026109646
:1037B0000F961E24002800D1AAE10546476D0FA9E7
:1037C00010AA0CF033FB072801D10724A0E12846FA
:1037D00029300D90A86DC07C7F2804D1E84800787E
:1037E0000D9908700BE040B2002125F013F90D99F6
:1037F0000870C0B227F0EEF8002800D132E1019441
:10380000284651300990384661300C903C462C34A3
:10381000391DDC4838600E918E700E80FE71DA48DA
:10382000B86038460C302021029126F099FF07201D
:103830002070601C0F2126F093FF0D98007824F073
:1038400022FA6070A86D407A20700E9B18880122C1
:103850001043FE210591884318800792FA7127F0E2
:103860001DFB7D21490140180490F8610B960894D6
:10387000A670A87B012802D107980899C87038461D
:10388000B8300690384680300A9038463C30394689
:1038900064317863B9632A21009026F061FF7F20AC
:1038A0000C9948710B98B866F8660E9738670498BB
:1038B0002861B648007809990870B5480078002852
:1038C0000D9E12D0707E0599084002280DD1B14C92
:1038D00020680D3025F08BFE002806D128463030B8
:1038E0002168C91D062225F08FFD707E411E88418A
:1038F000089B194634310391099534240494195DC9
:10390000FD220A404000101818550E985430099CAA
:103910003034A14B06262146324698470C980B9925
:10392000C1769E480A9D6880079FAF800E988830B8
:1039300021463246984B9847EE71069D0B982870A9
:103940009648E8802F8108980499405C099F4001BF
:10395000402208921040001DA8720E98C4302146E3
:1039600032468D4B98470496EE723D46B87B01284F
:1039700001D0042878D1039E30784001089908408E
:103980000D9FB97EC9014018401C0A9988710C200E
:10399000C8710E988E302C463C34062521462A46A6
:1039A00025F032FDB87E3178079A1040059A114013
:1039B000081830700E985A3021462A4625F024FD0A
:1039C0000A9B069D0E9C21467431B034D879801D27
:1039D0001880E87A801DA88073488078400606D554
:1039E0009879029A10439871A87A1043A8720E9E93
:1039F00035464435284625F06BFC2846214625F0FF
:103A000067FC34464C3423F089FF0146204625F0FC
:103A10002FFC0998406EC17800790002411802D04D
:103A20006248484300E062480E9A90626148002470
:103A3000022114615161906155480078002804D03A
:103A40000C9A10781C21014307E0564800681BF0CF
:103A500003FE0C9A1078E321014011700F9856492B
:103A6000818055E0122453E0E86D002810D0C11C7D
:103A70000A78497809028A180AD0411D0E988E30BA
:103A800025F0D6FDE86DC0780A9AD1790818D07172
:103A9000286E0028049E10D0C11C0A7849780902BB
:103AA0008A180AD0411D0E98CA3025F0C1FD286E33
:103AB000C078069AD17A0818D072A87B022800D064
:103AC0000B9E032800D10226039800784001089934
:103AD000084080190A998871A86D807C0C9B197820
:103AE00003220240FC200840801818702C4838211E
:103AF000405C01280FD127F011F8044627F012F896
:103B0000014620461EF022FC0028019C069D2ED076
:103B1000204611B0F0BDA86D807C059901400229B6
:103B20000ED1204909680A794B791B029A188B79C2
:103B3000C9790902C91809048918091F009A116076
:103B4000022108430328069D0A9B00D03AE7154846
:103B5000006801794279120251188279C079000215
:103B6000801800044018001F0E9908642AE726F008
:103B7000D5FF26F075F9009908600A9B22E7C04638
:103B8000DB7400200110000091000000FA87002083
:103B9000C8730020A07400200994020003020000F2
:103BA000448300203474002022720020409C0000D6
:103BB00000204E0045160200AC0D0000F0B5DBB051
:103BC000052800D969E1800001A108588746C04650
:103BD000E93B0000633C00007D3C0000BD3C000070
:103BE000CD3C0000EB3C0000E14D00273846294663
:103BF00017F042FC2878189068781790A8781690EB
:103C0000E87815902879149068791390A879129023
:103C1000E8791190287A1090687AA97AEA7A2B7B51
:103C20006C7BAE7BED7B089009910A920B930C9410
:103C30000D960E9517980090169801901598029081
:103C40001498039013980490129805901198069078
:103C500010980790D34A08203946189B21F05AF84B
:103C60001BE1CB4C0120214617F006FC20780628EA
:103C70007AD16178032977D1B84996E0BF4C022008
:103C8000214617F0F9FB2078022800D087E0BD48D4
:103C900026F00AFA19A8202527F02EFA53A827F0B3
:103CA0002BFA38A8314626F05BFD002040287FD053
:103CB0002118497A38AA1154401CF7E7AE4A082067
:103CC000002121F027F824F0B3FEE6E0A84C2146BD
:103CD0002031042017F0D0FB2020205C032800D0E6
:103CE000DBE0A4492E204122D5E09A4C0520214654
:103CF00017F0C2FB2078062800D0CEE096480421B9
:103D00000170401C95490931402227F0ABF838A8D2
:103D1000202527F0F1F919A827F0EEF9904953A8CA
:103D200018902A4627F09EF824F0E7FB28A826F0F2
:103D3000FBF900263046314625F0B6FE07464BAB70
:103D400018992A4624F0BBFB384626F0F5F9202EB8
:103D500051D0701CA1194A7838AB9A552122895C40
:103D600019AA91550646F2E7012800D095E0894846
:103D700026F09AF953A8202527F0BEF94BA827F082
:103D8000BBF938A8314626F0EBFC0020402800D1D2
:103D900085E02118497A38AA1154401CF6E7052815
:103DA0007BD16078032878D175492E20892272E072
:103DB0001F20C74324F0A1FB28A826F0B5F9002056
:103DC000014625F071FE064638A940224BAB24F08F
:103DD00076FB304626F0B0F9002F33D0E019692188
:103DE000415C19AAD21951558921405C53A9C919BE
:103DF00048557F1CF0E70AF0F8FD2CA826F0CCF817
:103E000027F0CEF80446544923AD27F0B2F830AE7F
:103E1000304626F047FD5348309031954BA83290FC
:103E200038A8339019A8349027F0C6F8002834D168
:103E30004D4A0C2027F09AF8204626F02BFE48A980
:103E40004A4825E00AF0D1FD2CA826F0A5F827F075
:103E5000A7F804464B4923AD27F08BF830AE304627
:103E600026F020FD3F48309031954BA8329019A89C
:103E7000339053A8349027F09FF800280DD1424A80
:103E80000A2027F073F8204626F004FE48A93F4890
:103E900008802E2002221AF0C5FA5BB0F0BD1F2068
:103EA000C74324F02AFB48A826F03EF9002001462B
:103EB00025F0FAFD064638A9402230AB24F0FFFA7F
:103EC000304626F039F9002F0CD0E0196921415C09
:103ED00053AAD21951558921405C4BA9C91948559B
:103EE0007F1CF0E70AF081FD28A826F055F827F09E
:103EF00057F8044627492CAD27F03BF823AE30464F
:103F000026F0D0FC17482390249530A8259053A87C
:103F100026904BA8279027F04FF80028BDD11E4AC5
:103F20000B2027F023F8204626F0B4FD22A91B48D9
:103F300008802E2002221AF075FA194919AC2125A1
:103F400020462A4626F08EFF04202946224616F0F7
:103F50008FFBA2E7BC8100203A810020C6790020B7
:103F6000DCEE0200BCE902005CEF0200CCDD0000E8
:103F7000F98000203E8200206CE102003D790020A3
:103F80004F7A0020FD810020EBEF02005566000013
:103F9000B47800207B81002005F00200AABB00005D
:103FA000D4EC020038DB0200F0B58FB0DA4880783C
:103FB000FF280DD026F036FE07460446FF201C30B1
:103FC000395C012906D138184178204623F0D3FD09
:103FD0000FB0F0BD772080003E18D920400038187F
:103FE0000C909D25384676300E90007B022813D128
:103FF000307900070DD5A179608E4208A38EE08E3E
:1040000000090090002010F04BFE3079E7210140BC
:10401000317100200E990873089625218F226800BF
:104020000C9B1B78022B02D100230C9D2B70C90026
:1040300052003E180E98807E022802D100200E9B6E
:10404000987638467F18059080180B90318B0029A0
:1040500002D0B07D10F010F90720019016F0AFF8F3
:1040600060892081AD48427C417B8B18C57B0695D9
:104070005B19857B0D955B19057C5B190A93A84B31
:104080001B6807930994A3793824049403935C4331
:104090002B4605460846079909192C24095D02910B
:1040A000B98807928918069AB980E97CFC8861185A
:1040B000F980297D3C8961183981798909187981CC
:1040C000B9890D9C0919B981F9898918F981398A49
:1040D000C9183982A97C348861183180697A74885A
:1040E00061187180E97AB4886118B180A97AF4887E
:1040F0006118F180297B748961187181297AB489EA
:1041000061180A9CB1810B9EB188491CB18031882D
:10411000091931807188091871803E68002E0DD010
:10412000029949007218735A1B1973524A21535A43
:1041300018185052A87B0D90EA7B2B7C079800281A
:104140002FD10D9800282CD1002A2AD1002B28D15C
:104150000027019D284603993A4614F076F9099CF8
:10416000E783089908680979294001221646D20791
:104170000240501803D0A079002126F08BFD674B38
:10418000587B00281FD0207C002801D0E089A08126
:104190002774207F012801D1608CE083059D37467C
:1041A000A8E000270C980784089E3068C10F099C7E
:1041B000059D2ED031794A07920F21D00021039816
:1041C00026F068FD25E00B99C888401CC880207C3B
:1041D0000227002800D18CE0059D28462E30616919
:1041E000490000784F4A424388187B210901401852
:1041F0004B490968A279049E72438918C88579E001
:10420000CAB2521C019B1A40F8230B40D1183060EF
:1042100031712089E1890818A0812774207F012845
:1042200001D1608CE083A1790720012214F00DF9FF
:104230003A4B552080002818597A00290FD00121C7
:1042400021770E990978002909D10E99097B002957
:1042500005D10E99897E002901D1618CE183017914
:1042600000290BD0022904D1997B002901D100211A
:1042700003E0197D002901D002210171597800293C
:104280000BD058682168C86025480068A179049A55
:104290004A4380180021C1850DE021490968A279AF
:1042A000049E56438919CA8D0260C8692168C86096
:1042B0000020E0832077743598787F2800D1812012
:1042C00028702046FDF77AFD012800D180E6012103
:1042D000204614F0C5FE154810301FF055FD384635
:1042E0000A9922460EF0ACFC01F086F800F09CFB27
:1042F0006EE6059D2089A189884204D0401A98D98C
:104300000949884295DC0B980088002801D00821D3
:104310005BE63E2159E6C046987300206871002094
:1043200070740020C4090000AA10000098840020C6
:10433000F0B589B00446016CC26A20F067F8E16FFD
:104340004A1C904201D935269BE1002813D0206CED
:104350008A0087180837891C384626F097F8A16824
:10436000384625F02EF9002807D0E56F691C8842F1
:1043700005D9C62685E1532683E16C2681E12378A1
:104380006626022B00D27CE1052B00D979E1216C55
:104390000A6801263240032B334600D300235A40DB
:1043A00080230893E2500790E06720463A460B4688
:1043B00014F006F820784000001F3146814008982C
:1043C0002150216C20460A4620F04CFBE567E16C49
:1043D0002046324625F037F9626EA06EE16CA36F7D
:1043E000E56F0095A84DA847A26EE06E26F09EFAF4
:1043F000A06EE26E26F09AFA216F226B204620F022
:1044000005F8E56FA84201D93C263AE100280ED014
:10441000606CE26E216F26F0B7FD216F626B204663
:104420001FF0F4FFE56FA84203D9652629E1C326F2
:1044300027E1064600280ED0A06C216FA26E26F060
:10444000A3FDE16EE26820461FF0E0FFE56FAE429B
:1044500003D95C2615E1562613E126468036A26E66
:10446000E16E206F26F090FDE26C206D216FA36F4E
:10447000E56F009501F054F9E06F421C069632603A
:10448000666D00252778B81E0123194681408D42AC
:1044900009DA616C304625F047FF06980268900003
:1044A00036186D1CEEE70893A06D0025069EBB1E16
:1044B000089999408D4206DAA16C074625F034FF31
:1044C00025F0A5FFF3E7E06D0025BB1E0899994094
:1044D0008D4206DAE16C074625F026FF25F097FFAE
:1044E000F3E7216C08788007C30F07984001401C50
:1044F0000026049607960396089A019090426BD97D
:104500000593801AB842069B00D3384618602046AF
:1045100008921FF0B5F807994118C8B27A1E012514
:104520002B4693409842029500DA00252A46BA406D
:10453000984200DB4842059B0799C9B207911018C1
:10454000DBB205935349C95C049AD7B29E00524A24
:1045500092197B00D218525D920051180006800D0E
:10456000001F04229043081806990860204600F0B6
:10457000ABFD6800494989190918079A895C0791B8
:10458000474989190818C05D04902778B91E454825
:104590008019405C089A12181420059B5843424B1E
:1045A0001B18052041435918039E8E5D216C530949
:1045B0009B00CD581F231340DD40029B1D40079BED
:1045C0005D4045430A20059B5843384B1818401955
:1045D0000396835D019891E70798C0B2012811D135
:1045E0000498C0B28000C01C069E3060274D204653
:1045F000A847012030602046A847022030602046AE
:10460000A84727789926032F3BD30020C043079063
:10461000B91E012008908840FE30069DC7B2089858
:104620002860002F11D07A1C2046394605F09AFCEC
:10463000089828602078801E07998140C943204649
:104640003A4605F08FFC781EE8E72078801E079F29
:1046500039468140CA430021059120460C4B9847BA
:10466000089828602078801E8740FA432046059FDE
:104670003946074B9847089A2A6020463946044B2A
:104680009847304609B0F0BD21570000C9500000DE
:10469000659F000030F8020014F10200E4F002000F
:1046A0002CF10200FCF0020051DA0200B8E3020033
:1046B0007FB51546D84A82181C2A48D8920001A313
:1046C0009A589746394700004F4700006747000057
:1046D00093470000B9470000CF470000E3470000C0
:1046E000F94700004F470000074800004F4700000F
:1046F0004F4700001F4800003D4800004F470000A2
:104700005B480000714800009B480000C74800005B
:10471000D3480000F54800001B4900002D49000067
:104720004F470000434900004F4700005549000033
:104730005D490000794900001824012900D05CE19E
:104740002878022800D958E1B449887054E102243D
:104750000E2800D951E1022900D04EE129881EF02F
:1047600079FB044649E11824012900D045E1287865
:10477000012800D941E1A949012803D1CA78032AB7
:1047800000D1F7E00871002800D035E100244C7119
:104790000EE01824012900D02FE12878042800D940
:1047A0002BE19E49C870032800D025E100248C80AD
:1047B000204625F0D1FC20E11824012900D01CE17D
:1047C0002878012800D918E19449887114E110294A
:1047D00000D0C1E0914854301022294624F014FE44
:1047E0000AE11824012900D007E12878012800D91E
:1047F00003E18A49C871FFE0012900D0ACE02878C4
:1048000086490873F8E0002900D0A5E026F04AF9AF
:10481000002800D1DDE0814801214173ECE018243B
:10482000012900D0E9E07D48827B2978022A00D066
:10483000B3E0102900D0E0E01021B1E0012900D060
:104840008AE076490A7C287808740024002A00D07F
:10485000D3E0012800D1C2E0CFE01824012900D024
:10486000CBE02878042800D9C7E06C494874C3E03D
:10487000072971D1691C01AE0622304624F0DCFD07
:1048800029780024009403AA304623460EF0CEFE79
:10489000002800D186E03424AFE01824012900D09C
:1048A000ABE02878022800D9A7E0002800D1A4E0D6
:1048B0005A498873022800D0A2E01020C873012052
:1048C00025F096FF98E0012946D1287824F024FDB0
:1048D00092E0524E307A1824002800D08DE06029F2
:1048E00070D1002D6ED04E486022294624F08CFDF8
:1048F00001206CE0182401297FD1287801287CD878
:10490000464908720024002877D0012048724448A4
:104910004449602224F078FD6FE0182401296CD10D
:104920002878012869D83D49C87265E0002401292A
:1049300063D12878012860D83849887225F004FCB2
:104940005BE01824012958D1002D56D0287833492E
:10495000087051E0002918D018244EE018240129CD
:104960004BD12878012848D82C49012841D10A790F
:10497000002A3ED1022440E0182401293DD12878A4
:1049800001283AD82549C87436E026F08BF800286B
:1049900028D02248012181742EE0CA1F0A2A2CD275
:1049A000C17329E01D4DE87A002804D126F07AF879
:1049B000002802D0E87A012827D103A8007809F05E
:1049C000C7FD08E0012918D1002D16D02878707293
:1049D00012E022F0CBFE0446502022F01FFA1BF01A
:1049E00001FD0AE010F020FC0446502022F016FAE7
:1049F00003E0487125F0B0FB0024204604B070BDF0
:104A00000024204625F0F4FEF7E7686A03A9097838
:104A100001224254F1E7C04600FCFFFF987E0020CF
:104A2000FC7E00200CDC0200FEB5D04E7468002C29
:104A300027D02578681E1F2826D801218140CC4820
:104A4000014221D03078002800D15BE101273846AF
:104A50001FF004F9002805D001201FF01DF921F0F6
:104A60002BFD2578284607F079FF0646002854D00C
:104A70003078102879D88740BF48074275D07568CC
:104A800077E01DF083FEFEBD402D03D0802D01D0C8
:104A9000FF2D37E1B74D6878002845D026F0CAF8D9
:104AA00026F0C0F807460068029040680190B87987
:104AB000E87000210225384600912A4626F0C7FA00
:104AC000032800D137E12078402805D1B87926F0B5
:104AD00099F8012800D12EE17078C00600D134E1A8
:104AE000012420461FF0BAF8002804D001201FF04E
:104AF000D3F821F0E1FCB07807F030FF064600283B
:104B000000D1E6E03078102800D9D6E084409A48F9
:104B1000044200D1D1E07468D3E096484078002880
:104B200000D1EFE0002528E07078C00600D102E156
:104B3000012528461FF092F8002804D001201FF01C
:104B4000ABF821F0B9FCB07807F008FF002800D1DD
:104B5000F1E004460078102800D98EE085408649AF
:104B60000D4200D189E062688CE0304621F0A4FC5F
:104B7000054680484078002813D026F05BF826F0E0
:104B800051F80446076878680290A0797949C8709E
:104B90000195002D1ED03046394605F089FF0546A7
:104BA00019E000200122314626F051FA032800D1F5
:104BB000C1E0B4423BD03078042876D002282A469F
:104BC00077D0012800D09DE0002A00D1B3E0FF207B
:104BD000294694E00225204631462A4626F037FA37
:104BE000A84203D00328054600D1A4E0022D07D136
:104BF0003978A07980290FD1029918F074FA14E05D
:104C0000002E7FD0307804282DD0022830D0012803
:104C100078D12846019972E025F0F4FF012800D1EF
:104C200089E0A079029926F03DF838469AE020788C
:104C3000411E07296AD8880001A108588746C04646
:104C4000614C0000194D0000114D0000234D000083
:104C5000114D0000114D0000114D0000614C00008D
:104C6000002D7ED167E028463146019A029B60E024
:104C700028463146019A029B61E0204621F01CFC47
:104C800002462078042808D002280AD0012852D1F0
:104C9000002A50D0FF20114631E0FF20002321469A
:104CA00047E0FF200023214649E0FF200023314652
:104CB0003AE0FF200023314641E0304621F0FCFB82
:104CC0000446002C05D03046029905F0F1FE054659
:104CD000009400210222384626F0B9F903282AD090
:104CE000022802D1022D28462FD0002E0AD031787A
:104CF00004291BD002291FD0012923D1009925F0B6
:104D0000CDFFFEBD002023F01FFFFEBD102828D0E0
:104D1000002023F019FF24E0FF20002321462A462B
:104D20000DE0FF20002321462A4602E03146009A8A
:104D3000019B1CF066FAFEBD3146009A019B1DF0F6
:104D40008EF9FEBD002023F0FFFE029C2178B87989
:104D5000802903D1019918F0C6F902E0019925F0E4
:104D6000A1FF204612F0EEFDFEBDC04638730020C4
:104D70008B8000809873002002010100F0B595B08F
:104D8000002A00D199E10E460746109311A8103071
:104D90000B90002423462546505D002800D186E173
:104DA000252807D0022E03D3761E791C38700F46B3
:104DB0006D1CF1E70D9309945219911C507803462C
:104DC0002D3B5C425C410F942D2802D1D21C087807
:104DD00000E00A46302802D1531C117801E0014658
:104DE00013462A290AD1109910C910915A1C197812
:104DF000002C11D5644201230F930DE000240A46D4
:104E0000303A092A07D80A2262435418303C5A1C07
:104E100019781346F3E71A460923DB432E290A972C
:104E20000C940CD111782A295CD1109980C9109169
:104E3000F9178F43941C517822460C9C01E01F46C1
:104E4000093707933028204600D000200690202301
:104E500008460E9318436C2803D1501C0890117813
:104E600000E00892079B0846633815284FD80A24AB
:104E7000800001A210588746014F0000D14E00006B
:104E80000F4F00001B4F00000F4F00000F4F00009E
:104E9000D14E00000F4F00000F4F00000F4F0000D9
:104EA0000F4F00000F4F0000414F0000454F000022
:104EB0000F4F00000F4F0000614F00000F4F000028
:104EC000894F00000F4F00000F4F0000874F000078
:104ED0000698874200DC0746109802C810900B988D
:104EE0003A465BE0521C00270C46303C092CA4D803
:104EF0000A247C436718303F541C11782246F3E79C
:104F0000109901C9109111AC207001234BE0022EC1
:104F10000D9B00D383E00A9F85E01099C91D0720EF
:104F200081430F6810914968002238460791059225
:104F3000134618F067FC0490002879D1079C7BE0A9
:104F4000082421E0109802C81090082210230B9F1B
:104F5000384614F045FF441E402020703B1B22E0E1
:104F6000109901C910910028564C00D004462046E3
:104F700025F0CCFA87423B4600DB03467A1C0D99AC
:104F800012D1034610E010240698874200DC074641
:104F9000109802C810900B983A46234614F020FF50
:104FA00004460B98031B0D994A190C980D93C01ACF
:104FB0000F99002902D00A9F0E9D0DE00A9F0E9DB9
:104FC000012808DB022E03D3761E7B1C3D701F4692
:104FD000521C401EF4E7401E0D9B002B0BD05B1EA5
:104FE000641C022EF9D3651E2D78761E791C3D7047
:104FF0000E9D0F46F1E70D998B180F990029099C1A
:10500000089A00D1C7E6012800DAC4E6022E03D3CD
:10501000761E791C3D700F465B1C401EF3E7761E22
:105020000A9A571C1170099C5819431C089AB2E639
:105030000120C40707984440384621461CF0E2F896
:10504000039021F005F902460B463846214605F04B
:1050500065FC059A1A4B0DF099F91DF0B7FD014654
:1050600004220A2301970B9F3846029314F0B8FEDE
:10507000441E2E2020700698C71B01980799059A98
:10508000134618F0BFFB002800D07F1E3A192046B7
:105090000399029B14F0A4FE04460498002802D051
:1050A000641E2D20207010980830109079E7581950
:1050B000002F03D00021397000E0002015B0F0BDB2
:1050C0000088C34022F80200F0B589B00446802071
:1050D0002158C8080D460391E26F511C4143E06D11
:1050E000C9B28F00C019616F636C06AE0BC6A8070A
:1050F000060F05A88159206EA36F0092BB4D0A468A
:10510000A847606E25F039FC05A88059A16CA36FF3
:10511000E26F0092B64D0A46A847E06E216FA26C7E
:10512000636E06920791089305A98959E26DD21919
:105130000497236EE56C06920793089505AA25F05F
:1051400030FCAA4DA847606EE16EE26C06AB07C367
:1051500005A88059E26F521C25F0E6F8E06E216F39
:1051600006900791089005A88059216E25F0E3FB71
:105170009F4DA847206FA16E06900790089105A843
:105180008059A16DC919226E636E06AD0EC505A9C1
:105190008959A26CE36C656F06930795089205AA7E
:1051A00025F0FFFB914DA847606F216E0690079197
:1051B000089005A88059A16E25F0BDFB8C4DA8472D
:1051C000234660330ECB06930791089205A88759B2
:1051D000E56C606F06910795089005A989590692BC
:1051E0000790089305A88259A36FE06F0090384696
:1051F0007E4DA847226E606E616F06AB07C305A89F
:105200008559E16EA36FE06F00902846784FB8474C
:10521000216E226DA36FE06F00902846B847E06CC6
:10522000616E226E06AB07C305A88159E06E626FFE
:10523000A36E06AD0DC505A8805925F07CFB6B4D0E
:10524000A847616EA06D049FC219E56E06A826C02E
:1052500005A988590290216F226E636F069107920B
:10526000089305A98959E26DD219636C06950792D6
:10527000089305AA25F095FB5C4DA847606EE16D8B
:10528000C919E26E06AB07C305A88059E16F4A1C35
:10529000029925F049F8206D25F06FFB05A881598A
:1052A000206F226E06900792089005A8805925F07D
:1052B00042FB4F4DA847606E616FA26E06AB07C3FD
:1052C00005A88059216EE36E06920791089305A9FF
:1052D0008A59A36FE16F0091464D0146A847226F9E
:1052E000216E206D06920791089005A88059636E83
:1052F00006AD0EC505A98959636CA76E069307977D
:10530000089205AA25F02AFB384DA847616F606D09
:10531000049D4019626C06910790089205A8805977
:10532000A26E06920791089205A98959E26E236F31
:1053300006920793089205AA25F010FB2D4FB84757
:10534000606F25F01AFB05A88059626C636D5B19CC
:1053500006920793089205AA25F000FB254FB8474F
:10536000616FA06EE26E06910790089205A88059C1
:10537000636D5B1906930792089105A98959636EBD
:10538000276E06920793089705AA25F0E7FA174FAC
:10539000B847616FA06D4019A26C06910790089202
:1053A00005A880590490A26E042303980340E76E79
:1053B000606E069707901B1D05ADED58069107928C
:1053C000089505A98959226F256E0690079705A8AB
:1053D000C05806920795089005A88259A36FE06F00
:1053E00000900498034CA04709B0F0BD215700007D
:1053F000C55800004D590000F0B589B0BD4CA078EB
:10540000FF2803D1002023F09FFBA07825F00AFCA1
:1054100004466B20800025182056002805D57F21E2
:1054200008402870204614F029FA2246823221468C
:105430002E31A06E00680068002802D00020E083B2
:1054400011E04820085C00280DD1107800280AD10E
:10545000907B002807D1A879002804D1207F01285B
:1054600001D1608CEBE7069508920191DB25552070
:1054700007902189E08B05914E1C371867812046E3
:1054800022F03AFA012803D09B480078012803D182
:105490000020E083668137466E0007988000079001
:1054A000089D287801280BD16A88B9B2059820F0A8
:1054B000E7FA002804D024F0B1FF2BD06A8820E05E
:1054C000A87B01280BD1208961892A8A20F0D8FA8B
:1054D000002804D024F0A2FF1CD02A8A11E0069FE5
:1054E000B879012816D1208961893A8920F0C8FA53
:1054F00000280FD062892189481C80B2824209D0DD
:105500003A89824206D0501E608180B225F072FD39
:10551000401EE083A619079820180790B87900214B
:10552000012803910FD138892189491C89B2884209
:1055300009D8727832700220B871A17900200392E4
:1055400013460DF095FD07980079002804D000203F
:10555000E0832089401C608106962878012810D1BC
:10556000688821894A1C92B290420AD1608125F054
:1055700041FD618E4143E8880E1820460FF000FF80
:1055800000E0668E274620375C4AE18B04914D1C73
:1055900075436A432668F0681318F360584834214D
:1055A000415C0029029205930ED0564949780029A2
:1055B00003D055480021018006E053490A88531C56
:1055C0000B80002A00D190E0608A6843192109010C
:1055D0001DF080FD401C6061A561049939704B4B42
:1055E0001968A27938277A438918CA693261059AFD
:1055F000101AC861B06008798880A18A1868A279F9
:105600007A43861830462E30F28D49005118F185C4
:10561000089A1278022A05D1019A1278374B5A4318
:10562000511801803A4D374A5278002A18D0F26951
:105630005219F26123689A60029D521B1A617B2203
:1056400012018A180280069B1B78042B03D1572273
:1056500092018A18028090B2079908602C4D06E0EA
:10566000039A042A03D1E122120189180180618E74
:105670002848027C437C1B029A18837CC07C000271
:10568000C018000480180068484364211DF022FD02
:105690001A49414368189030B0621F4D287822F0B3
:1056A000F2FA2978C2B2304623F0A2FA069D297890
:1056B000002903D1002023F047FA2978A0792A791C
:1056C0001BF0F4FA204625F086FC10480068A1790A
:1056D0004F43C019216848601048072101702046D7
:1056E00016F0B6FE002009B0F0BDC08E0799C9883B
:1056F00008186AE79873002002750020C4090000AA
:1057000044830020687100204686002070740020C9
:10571000C0FAFFFFFCEE0200DB740020F1740020F1
:10572000F8B444464D4656465F46F0B400B501B461
:105730000B9B5B005B1C6C469B00E31A9D4610B400
:105740006C46241D00266D46009CE36A2D1D9B00BF
:10575000EE505B00EE50E36A013B9B0098465B0015
:105760009946002300240025002702E03700404628
:105770003F1A9A46A346AC46B646F01B1458C85981
:10578000030C80B2250CA4B21E006E436343454354
:1057900060431C041B0C00195E412C042D0C0019E5
:1057A0006E4153465C4665461B18744100204541D6
:1057B00076460437474501DCB742DADD6846001D0E
:1057C000835123462C46002504364645CCDD4E4504
:1057D000CCDD8351009B9969083102464E46043660
:1057E0001068009B9C6924684443A146002700235D
:1057F000002400259A46A346AC46B6464C46C859F6
:10580000030C80B2250CA4B21E006E4363434543D3
:1058100060431C041B0C00195E412C042D0C001964
:105820006E4153465C4665461B1874410020454155
:10583000D0591B18002044414541002F02D0043F9D
:10584000D35104370437764623462C460025474576
:10585000D0DD301D8742EBDD043FD351043E464589
:1058600000DDBDE710BC2068E36A9B460246914616
:105870006846012720C840C97F08B5417F4120C242
:10588000013BF7D105682F430126F741FF17FE437F
:1058900068463840494631400843494639406D46DC
:1058A000354029435B4604C904C0013BFBD1A546F2
:1058B00003BC8E46F0BCA046A946B246BB46F8BC27
:1058C0007047C046F0B444464D46564670B48146D3
:1058D000079CA246002720C940CA7F0875417F4126
:1058E00020C0013CF7D1B8464846083354466A46C2
:1058F000A400141BA54604B46A46121D5446012791
:1059000020C840CB7F08B5417F4120C2013CF7D180
:10591000424617430126F741FF17FE4348466946B2
:10592000091D0D46384031400843494631403D404D
:105930002943544604C904C0013CFBD101BC85463F
:1059400070BCA046A946B246F0BC7047F0B44446CD
:105950004D46564670B48146079CA246012720C991
:1059600040CA7F08B5417F4120C0013CF7D1B8460D
:105970004846083354466A46A400141BA54604B49E
:105980006A46121D5446002720C840CB7F08754147
:105990007F4120C2013CF7D147460126F741FF175E
:1059A000FE4348466946091D0D46304039400843CC
:1059B0004946394035402943544604C904C0013C96
:1059C000FBD101BC854670BCA046A946B246F0BCDE
:1059D0007047C046F0B444464D4630B488469946B8
:1059E0006C469B00E31A9D4610B46C46241D4B4642
:1059F0000832012720C940CA7F08B5417F4120C431
:105A0000013BF7D16A46121D0125EF41FF17FD4307
:105A1000414629403A4011434B4610C910C0013B52
:105A2000FBD101BC854630BCA046A946F0BC7047FE
:105A3000F0B587B0122700282DD00646A94D28784A
:105A40000938052801D2212526E0B07824F048FF46
:105A5000002824D00446B078A3490870297800298A
:105A600001D1A2490870A06D4078C10604D4800716
:105A700002D5206E002832D0607A00280BD0A07B9F
:105A8000012805D1F078317909020818802802D858
:105A900070783F2805D93D46284607B0F0BD42251D
:105AA000FAE7204621F043FB606D002819D0254617
:105AB000433566663078012822D1A07B04281FD8A0
:105AC00001218140132001421AD089480078002822
:105AD000E1D088494978814205D10925DCE70C25C8
