:1000000000040020D5AD020037BB020013AF020090
:1000100083BA020083BA020083BA020083BA0200E4
:1000200083BA020083BA020083BA02003FBC020016
:1000300083BA020083BA0200013302003184020055
:1000400083BA020083BA020083BA020083BA0200B4
:1000500083BA020083BA020083BA020083BA0200A4
:1000600083BA020083BA020083BA020083BA020094
:1000700083BA020083BA020083BA020083BA020084
:0C00800083BA020083BA020083BA0200B7
:10009000F0B591B00546001D099013460D9250042D
:1000A0000E9500D50CE101200290000208400B9053
:1000B00003D1B020014200D1C9E10091012001909B
:1000C00000040D9981430D910027F948C06A042866
:1000D0000F9300D2ABE1109700200C9026F020F88F
:1000E00086B2751D03202F460A908743F84C60693D
:1000F000394622F017FE224604465069844204D055
:1001000008201099014310915461002C00D190E116
:10011000A908E0892518103528461FF0B5FFEC4BDB
:100120000B98002800D1B6E0032E00D2B3E0686837
:100130000103090F08290ED0072914D1687AC106D6
:100140001FD4184620300C999962D962196319623C
:10015000017141759AE03820185C00280CD01846CF
:100160003830002194E038229A5C002A04D001291A
:1001700002D8000E3D215854002058873C21585485
:1001800089E0C10701D0102100E00A21820700D5D3
:10019000891D4207D20F8918000700D5891C0791D5
:1001A0006A1805929078C006C00C517840180490E7
:1001B00021200F90185C08901A4621329078000494
:1001C000089E301820330693049B1E02C14B184032
:1001D000331804935170180C089090700798295C9C
:1001E00040263140B3435918B9480F9BC154089871
:1001F0009070080A03905070079BEE5C80200640C8
:1002000081438819B2490F9E885503995170089906
:100210009170E95C3F23194098434118AC488155DF
:10022000089890700B0A53700598807840090590E3
:10023000400508901F200004049E3040089E80194D
:100240000890A34E0F9831545370A14B0898000C9E
:100250009070069E07983071E879202158540C9AC6
:100260009A62DA621A6301217175D87925380228F9
:100270000AD80E9840880A9A1040059A904205D0F4
:100280003A200121195401E03A201A541846383016
:10029000C17001210171E0892118DA79CA74C0198D
:1002A000E081042038215A5C002A00D134210E9DBF
:1002B000109F07436858103027F0D4FE0D9B04E7C9
:1002C0000F9328462D3010902C462C34824F834EAD
:1002D00027F0DEFD079037608148801F814901606B
:1002E0008148002606808148808D794FF88127F06B
:1002F00051F97E49888610200590787128887C49BC
:10030000884203D138200121395401E038203E547D
:10031000109801790A91247800780B9039200C9676
:1003200006903E54688827F049F90646089420460E
:100330001BF094FC8225002800D1F7E007460B98BB
:1003400024F046FD002800D0F0E002200A990B4678
:100350000290034001200D460B90054003200490BD
:1003600001400A910E9C099A0BD0002D15D060888F
:10037000002806D1002B10D108982838C0B2FC28DC
:100380000BD810889178090440185A490840412137
:10039000490201431180000C9070032E00D0C4E08C
:1003A0000195039300263846314605F0E9FF25F014
:1003B0006FFE204607991FF063FF05460F280C9F2C
:1003C0000F9C00D9B4E0382041490A5C002A01465C
:1003D00000D03C21002A0E9A00D1342015585058E4
:1003E0004549C96820F0EEFF394988714348468481
:1003F000089948B2402901D240260E43002801D571
:100400007F260E403948468631480079002804D0BE
:10041000300631494840314908602C462434FF21D8
:10042000039800280F9100D11CE108461BE1284ADF
:1004300006E0852050713248012101600E9D109F19
:1004400090790028009906D10020019003E00F93D5
:10045000002001900746029BDC030F984006C60F60
:1004600010973E43601C0027014255D00D961F484F
:1004700006880804C00F1DD1002E03D031469943D1
:10048000022917D10C97124F3821785C002800D12F
:1004900034216958002E0B916DD0314699430222C8
:1004A0004A40024300D182E00C9F0D9E34E0C046DA
:1004B000A0110840002825D005484079102821D1F6
:1004C000304621F0B9FD02210D9E0E4322E0C046C8
:1004D00050750020FF00E0FFD6BE898E4014084012
:1004E0004220094000555555862009400620094004
:1004F00002100000FF00FF007C78002088200940E7
:1005000030100840072E28D1022420461AF066FC3D
:100510000D9E26432AF072FE0F9CB00700D524E101
:100520000198002800D036E140E135460C9F0F9C31
:10053000E8B20F2801D8384600E00120099B19884D
:100540009A78120489182A02F44D29400A431A8025
:10055000090C997046000E9D29E1F148017C49077C
:100560000F9C47D5002E45D103201AF037FC0221FD
:100570000D9E0E434AE0002819D03C26B85D0028A5
:10058000109656D03B21795C002952D026F024FAEF
:100590003A20385C002800D1A5E338462130807825
:1005A0002AF0E3FCEE4802850D9E26438BE33C20B7
:1005B000385C00282DD0EB488088400704D50B9884
:1005C00031461EF085FA029B3B20385C00283FD064
:1005D000002E3DD126F000FA3A20385C002800D1E8
:1005E000DBE22137B8782AF0C0FCDD4802850D9E99
:1005F000264335E0007F40077BD5002E79D10224C9
:1006000020461AF0EBFB0D9E26430F9C2AF0F6FDC8
:1006100083E70B9831461EF05BFA2AF0BBFC1028EA
:100620000F9C00D289E02AF0E9FD02200D9E0643CE
:1006300045E2CD490968BA6939243B5D002B0C9429
:1006400000D17DE2386C7B6C05881D80B85D79E255
:1006500002200D9E0643099A107819034018108055
:100660000C9F59E72520BF49C881288BC882688B19
:100670000883A88B488320788007C00F488227F022
:1006800079F826F0BFF9B94E308128460027776106
:100690000795103027F0E6FC0B9D28040D99814347
:1006A0000D9128F017F970816078410008230B4004
:1006B0004008042210401818AD4908850F9830747E
:1006C0000F97A94B1F833827F05D617829400028D8
:1006D000009710D0002900D0F7E10025DD821946EF
:1006E000A43128462A4624F065FE9F480A9A079FAF
:1006F000F8E10D9E11E79F48002902D00930588289
:100700000022079E58824C20984D2A523068194684
:10071000243124F04FFE00200F909349C8823068A6
:10072000E8611098C0788F49488008982838C0B28E
:10073000FD2800D236E2384635E28948017C490777
:100740000D9E00D5BBE1007F400700D5B7E18A4888
:1007500007210160894806210160B879002800D18D
:10076000ADE100271098800715D580483821425CFC
:10077000002A07D17B4A1288521C6B6BDA84415CD9
:10078000002908D03C21405C002804D0754800882E
:10079000401CA96BC88475493820095C002900D029
:1007A0003C2028586E49C96823F014F8099B03219E
:1007B0000A0258780002904200D0BCE01091E00399
:1007C0000F920CD569493820095C002900D13420EA
:1007D0002858103027F046FC0120000484436003B1
:1007E00002D4002F4DD1A6E060483B21415C002996
:1007F00005D03A21415C002901D0012700E0002703
:10080000C269002AEDD0102141560029E9D4CCB2AA
:10081000554D3821435C01463831002B0C970D961D
:100820002B4601D0A43300E024332F468E8AE50006
:1008300051195A195E515E515E515E515E514C68BC
:10084000896874403F8B0126F603002F00D13443A2
:1008500051605C515C515C515C515C51002F09D17D
:100860004149098B002905D0B44314601460146019
:1008700014601460FF2101740C9800280E9D0D9ED9
:1008800059D00D964B208200EE8D384F2123F85C15
:100890002137797809020818B97809044418E00268
:1008A000C00C21060B920C9301D5154600E01E25C5
:1008B00045433F20044020461BF0D0F9B54203D900
:1008C000099A10780C9930E000282BD00A9026481D
:1008D000006808902549886907903A25485D0028F6
:1008E00006D01F48008D26F069FE2049002048559B
:1008F0000C98085C797809020818B978090440183E
:100900008021014001D11E220B92109F1C4B020A34
:1009100000291CD01B486F301CE0C046FF00FF00C0
:100920007C780020099A10784121490240181080F3
:1009300002200D9E0643B00706D50C480021C16178
:1009400026F04AF829F0C6FD304611B0F0BD01206E
:10095000000218301A40002918D00B4B17E0C0468F
:100960007C780020422009408820094050750020F2
:100970000620094006800000A01108403010084001
:10098000FF1F0000E1040000380C0000E84B0B9949
:10099000514389003822E74DAD5C002D00D134224F
:1009A0000E9DAA58528D4B439B0E9204120C4A4343
:1009B000920ED6187300DF4A95893D40012D01D073
:1009C000A42200E07822089F7918079FBE19FC4FE7
:1009D000C018022D01D1192292018D1BF54E10185D
:1009E000F949088000210A9805F0CAFC25F050FB5F
:1009F00040347C86F14A9088042101439180F34A77
:100A00001079002804D02006EB494140ED480160F0
:100A1000A8193924115D002905D04A21515A8900AD
:100A2000C91CE64A9181EA4D012129F093F9102869
:100A30000D9E0CD3099B19889A781204891800021C
:100A4000294008431880080C9870022072E7099A20
:100A5000108891780904401828400F9901431180AB
:100A6000000C907026F086FED8488279B88DDF4958
:100A7000002A02D08031084602E08007800E4840FC
:100A80000E9D2AF04FF92AF04DF83827CF4AD05D55
:100A9000002816D0D44807210160105D002841D0FD
:100AA0002C463434CC48C56896892220314624F03F
:100AB000FFF910993140022924D0CE4923E00C9F40
:100AC0002BE5C948062101602CE0C448401DD882AE
:100AD000079F38681946A431002224F06BFCBD48FA
:100AE0003D680A9AB94EF5610F9941824C20315206
:100AF0000398002874D008982838C0B2FD2866D31F
:100B0000059965E0BD4928184018BF4941184A2099
:100B1000AE4D2A5A204627F093FA2A46A749488123
:100B20000E9D0D9E9079002800D104E7D05D00282D
:100B300000D03C27E859A849C96822F04BFEFAE6E4
:100B40004823FD5A891AAB4BAB4C00280DD03B20F3
:100B5000385C002809D16C430819B98903220A407E
:100B6000022A00D190E019468FE03D20385CBE8912
:100B70000A91314624F09CF908902220314624F055
:100B800097F96C430A990919089A89180818AF212E
:100B9000490146180E9D0C9A7CE068888E490885AC
:100BA000029F82E43C2003990A9A002900D108465A
:100BB00010438249888060788007000F0882F08C9B
:100BC000002800D0401E0C9F7C490880A6E014211C
:100BD000F88C002800D0401E8A18784908807B4E87
:100BE00076498A806078C007C00E0882F88B4884F6
:100BF000388C8884788CC88420780B9A104088823E
:100C0000BC680837A07B193027F054FE3064002CF4
:100C100013D0A089222813D320461030A17B0918B5
:100C20000A461532694B5A641522895A482299524C
:100C3000A17B08181721405A06E00F980B905AE044
:100C400048210020614A50521099C978002915D0D6
:100C500000284ED05D49383101224A70A27B12191A
:100C60002423029CD4545E4A5E4B13608200D21C43
:100C7000524B9A81488200210B9103E000224F4998
:100C80000B928A810F9036E05C490E9D0C9A4018B9
:100C90005B494618B85C002809D0686B4A217A5A2B
:100CA000314624F0DBFC53497118884201D955487C
:100CB00030180D9E686302200643099A10780121BE
:100CC00089034018108000243C4880881099795C82
:100CD000002906D00421084003D000210B981DF004
:100CE000F7FE274618E4012468883B4908850D9ED5
:100CF000EAE78220049001210022384613460EF0D4
:100D00006BFD002802D00C9F049D02E07C21CD43A6
:100D10000C9F0B99002949D1002847D02B48827994
:100D20002748808D3149002A06D08031084606E0E8
:100D30006C340000507500208007800E48402A4C1B
:100D400029F0F0FF214E0098355C29F0EBFE0220DF
:100D500000BF00BF002D21D0072020600698305C26
:100D60000325002822D0019A501E8241039948424F
:100D70004841104316D00E9C34341748C6681348B7
:100D80008189222024F094F830181949411820460E
:100D90000F9A27F055F90949488107E0062020609D
:100DA000032503E000200549488188810D9CFFF759
:100DB000BFFBC046C0FEFFFFD6BE898E4220094061
:100DC0000620094040140840862009405075002044
:100DD000FF00FF00882009407C7800200680FFFF8C
:100DE000E8100840E10400003010084031810000A4
:100DF0002E2200001027000088130000983A0000FF
:100E0000A8FDFFFFC4090000A60E0000F0B58FB0DA
:100E100006464520800030180A9008780890801E09
:100E2000152800D9BFE0DB225200B21809926B22CC
:100E30009200B21805923122D200B2180C92FF2310
:100E40000B225201B21806921A460232B2180D92C3
:100E50003246EC320B92324686323446773435468F
:100E6000673537464E1C079680000E9701A630580E
:100E70000E9E8746970F0000A70F0000AB0F0000E3
:100E8000F90F00000110000033100000A70F000050
:100E900083100000A70F0000CB100000D31000004B
:100EA000351100004311000065110000AD11000074
:100EB0001D1200003B12000047120000CD0E000082
:100EC000CD0E00004F1200005D1200000D95089835
:100ED000142804D10D984079002800D13CE14878CD
:100EE0008A7812021318C8780A79120214184879FD
:100EF0008A7912021518C879097A0902091808981E
:100F0000152800D0FDE10A9198B21B261B28034644
:100F100000D833462921CA001B28174600D327468C
:100F2000FB200B90FB2B184600D30B985049FB2B52
:100F30000B4600D83B469CB2E308292B374600D32A
:100F40000746944200D814468C420B9B00D83B467F
:100F50008C4200D30C46ADB21B2D284600D830463B
:100F60001B2D174600D30A9FFB28054600D30B9D77
:100F70000B96FB28084600D8384680B2C608292EB2
:100F800000D30B9590420E9E00D81046884200D8A0
:100F9000B5E1FB25B5E1079800780A9908720020B1
:100FA000C871F02145E208982AE3304698300C9049
:100FB0003446A0340827204607993A4628F0A9FC71
:100FC0000A900D942046394627F064FC04270C9CB7
:100FD00020460A993A4628F09CFC2046394627F0DC
:100FE00059FC9F20C1210B9F972800D153E1325C0F
:100FF0007254401E491CF7E701200B998874B3E333
:10100000069B0B9F397B0D98027810201040012918
:1010100000D04CE1002807D00020587098780A9939
:10102000896C49081CF018FAB079002118F098FE74
:101030004EE1069B099D059C079800780F3807280C
:101040000D9F00D990E3800001A108588746C04653
:10105000751000006917000069170000691400008E
:10106000691700006F140000691700007914000070
:1010700090420000012018713878FD21014039703C
:1010800072E3304607991AF0E1FF02200B990875C8
:101090000D98407800070C9F01D4FA487860FA4810
:1010A0004078800600D45FE338881B280BD178880D
:1010B0001B2808D12920C000B988814203D1F988B2
:1010C000814200D150E31421AAE201200B99C87398
:1010D0004AE30D9F387C012814D08A1C48780A996D
:1010E00008708B204000301802241146224628F058
:1010F00010FC01462320C0003018224628F009FCCD
:10110000012038746879002826D0B87C002800D0E7
:101110002AE3787C002800D026E32878002800D134
:101120007DE230461CF064F9002800D170E2012015
:10113000B87419E3079800780B9948730120C874B4
:1011400012E307990D9F6879002805D038780007C9
:1011500000D575E10E2053E23D200A990872012066
:10116000C87101E30B940C92069D0D9800788207DC
:1011700000D444E2324676321278012A0B9B03D126
:101180001A780F2A00D188E11A79002A00D17DE16E
:101190001A78002A0C9F00D17CE10B9BDB7A012B93
:1011A00000D177E1012A00D1CEE1CAE10C92487862
:1011B0008A78120210180B90CA780B791B029C18BF
:1011C0004A798B791B029F18CA790B7A1B029D18EA
:1011D0004A7A8B7ACE7A3602F3180C310E98068949
:1011E0009BB2A8B2009001960E9E029203930491C6
:1011F0000B9881B20B94A2B2BBB2304617F0B9F88B
:10120000002800D10FE10D980078400700D4F6E1E6
:1012100030461DF0D3F90F211E228CE18233F018E5
:101220004A782023069CE2548A78027088780B99C9
:1012300048730120C874607196E20D980078C0066A
:101240004ED41220DCE10020069908708CE2059B48
:101250000D984078C00747D11620D1E10C9F059C1E
:1012600029F060FE099B5D7805405D7000D1E5E0E6
:10127000681E284200D1F5E0042D00D2EAE018797A
:10128000002800D1E6E0042058701978042925468A
:1012900000D117E11EE13046DC30CC360D993246E4
:1012A0001EF074FE01203870002068715CE2002896
:1012B00009D00A98806C4208B12040003318834856
:1012C00031462AF047F8B0790021012217F004FED8
:1012D00001242C7030461FF0C5FA6C71BC7343E2D8
:1012E00030461FF0E1FD90E12078162804D0154625
:1012F0009A79012A00D015E1162123221BE10B9DCA
:1013000001460C984381C48105810546818188B2DC
:10131000E988814200D3014609980078A922120188
:1013200091420F4600D81746042800D00F46E98A9C
:101330000E91EF8204280DD130461FF01BF90246B2
:10134000A88A111A481E81410B91AA826B890998BB
:1013500000780AE0AA88A1B28A4200D30A46A98A84
:10136000541A611E8C410B94AA820E997C1A611E3C
:101370008C412D8899B28D4200D30D460C9F398A3D
:101380006B1A591E8B410E933D82099909790123ED
:101390000A931EF09FFA854201D2388A05E0099926
:1013A00008780979BA8A2AF0C0FB059D0B990C438D
:1013B00068807B883889834200D303460E980443B3
:1013C0000C9F798A581A421E90417B828B4203D926
:1013D000297880220A432A7004430898142819D1D6
:1013E000002C07D0B0790C9C218AA28AE48A009450
:1013F00013F00EFA0D9800781521002800D1B0E105
:10140000304618F02CFF002800D0ADE1D748007816
:101410000A9900E12878002C01D0082108432021F6
:1014200001432970A0E10C980B998180C780058148
:101430000021FF22304618F0D3FD95E100203BE06B
:1014400030461AF003FE2878002878D0304619F08C
:1014500079FDDAE00220020604D028422BD1C0B286
:101460004008F8E7284627E0002018707CE1207843
:1014700012210143217077E1A87812210143A9705C
:1014800072E1C04648084808E47A0020DA7A012A66
:101490000C9F56D1400700D4B1E00F2123223046E3
:1014A00023F072F8B1796A89AB89E889009000204D
:1014B0001FF092FB58E1587025461978C2B28A4253
:1014C00006D1084600215970014611E0BDA6010071
:1014D00002060DD0B18EC91D2981C1B204290AD1DD
:1014E00030461C461FF046F82346B882607802E07A
:1014F00000202881084628713C8A1979BA8AC0B22E
:101500001E462AF012FB844201D2388A04E0287970
:101510003179BA8A2AF009FB6880B078202101432A
:10152000B17021E10F287FD8012282409048024209
:101530007AD016212A22304623F026F814E1092118
:101540006EE0BA7A012A04D1400758D50F212A2229
:10155000A5E748788A781202101809902881C8787F
:101560000A79120210180890688148798A79120263
:1015700010180790A881C8790A7A12021318EB8113
:101580004C7A2C74887ACA7A120212186A82087B02
:101590004E7B3602361828461430AE828E7BCF7BC7
:1015A0003F02BE19EE820E7C4F7C3F02BE192E8395
:1015B0008E7CCF7C3F02BE196E830E7D4F7D3F0235
:1015C000BE19AE838E7DC97D090289190E9EE983FD
:1015D000318992B29BB200930191029403920490DC
:1015E000099881B2089882B2079883B2304616F003
:1015F000C0FE002837D00D980078400753D40F2044
:101600000A99487230461EF045FB002800D0ABE036
:10161000564800780121890312F050FDA4E00C2106
:1016200030461CF03DFB9FE0E07A012881D0A87A8B
:10163000012800D17DE729F075FC099AD178014095
:1016400051704CD0481E08421C4652D0042948D341
:1016500009980079002844D00420099B5870197813
:10166000042953D057E0334684336E890C9CA680FE
:10167000A989E180E889208102222270002262800B
:101680000E9A928ED41D1C800E9B5B8E5B089E4230
:101690000E9C0BD1914209D1E18E0909884205D1F6
:1016A000002120465EE00F211E22F8E60B99087902
:1016B000002802D008781A280CD1FC21204616F008
:1016C00061FCA07929896A89AB89EC89009412F0C0
:1016D0001FF949E00F204872FE212046A1E70020B3
:1016E0000EE00220020606D0084206D1C0B2400831
:1016F000F8E7084605E0084601E0099948700E9EA3
:101700001C46099B1978C2B28A4202D10020587047
:1017100010E001060ED0B18EC91D2181C1B204298D
:101720000BD130461EF026FF099B02460C9FB88263
:10173000587804E00020208112E00C9FBA8A2071C2
:101740003D8A1979C0B22AF0F0F9854201D2388A6F
:1017500005E0207909990979BA8A2AF0E6F96080CA
:101760001821304616F00EFC0FB0F0BDC07D0020F1
:1017700003800000F0B591B0044680780025102861
:1017800000D9A0E3800001A108588746D1170000C6
:10179000C71E0000C71E0000C71E0000C71E0000B5
:1017A000251800003F190000C71E0000C71E0000DA
:1017B0006B19000099190000A5190000D319000049
:1017C000C71E00001D1A00006F1A0000B31E0000A3
:1017D0006078002800D076E329F09CFC079029F07F
:1017E00071FD089025F026FF0BAC20700226102713
:1017F00030463946079A974B984703203946089A4E
:10180000944FB847042001212246B847207830433E
:10181000032800D057E301201AF098F8024606206A
:101820000146B6E06078002800D04CE30126E1785C
:10183000201D62890892277B00250095314009AA66
:101840002B4611F0FFFF00286DD109A8007827F082
:1018500031F904463E46083E701E86417E48807D32
:1018600080002AF0BFF80790002800D1D6E109A82F
:101870000690017878488078801E4242424100926A
:101880000898059422463B461CF067FB0BAC0027EA
:1018900014222046394629F072F80698007806216D
:1018A0000691484324301021224627F01BFF0028D0
:1018B00018D10BA8FF21102227F0A0FB002811D17E
:1018C00009A801780698484325300BAC224610320F
:1018D000042127F007FF01210598014008982246BE
:1018E0001FF0B2F809A800785321890040185A491E
:1018F000897D8900079A27F0F5FE002800D191E143
:101900005548C07D002807D10598800704D5534865
:101910000178089825F0D6FC09A800781CF0EEFDA7
:10192000079829F067FC002E00D1CCE24A48807865
:10193000022800D0C7E208981CF030FCC3E2A0885F
:1019400022F028F829F04EFE002800D0BBE2424CDD
:10195000607B012800D0D6E026F0F0FB0021617307
:10196000606A227D29F00BF8D4E0201DE178002385
:101970000093012529400BAA11F064FF002800D034
:10198000A1E20BA801780620484325300C3404213D
:10199000224628F0B7FA96E26078002800D1A0E04D
:1019A00000256AE2012529F08DF8002800D18AE29D
:1019B0002948C06A002800D190E00668002E00D1B6
:1019C0008CE0E01C6189227B637B24690094B04732
:1019D00079E2A588277B284621F0B4FA002800D1B7
:1019E0004DE1044629F06EF8002800D047E1A01D23
:1019F000617900230093012631400BAA11F022FFE8
:101A0000002800D1CEE014488078002800D100E101
:101A100061790022284614F0D9FA30E1607806286E
:101A200000D0E7E0A08821F08DFA002800D1E1E0A5
:101A30000949497C491E032900D9DBE0890001A23C
:101A400051588F46611A0000E51B0000DB1B0000A7
:101A5000EF1B0000059F0200A8870020F57A0020F8
:101A6000A38841790022184614F0B0FAC2E0FD4F75
:101A7000F86A002806D04368002B03D0A088002114
:101A80000A469847B978A08800292FD021F05AFA41
:101A9000002800D117E20646A07AC00715D0B01D75
:101AA000727900230093012111401A46089311F026
:101AB000C9FE002809D07079022806D3A0895321D5
:101AC0008900B431084200D1C2E0B87B022812D1AB
:101AD000A07A00070FD4A088032109E060890121C2
:101AE00006E0A079C0071BD10025CBE10125052127
:101AF00027F0CFF9E7E10125A08808347179224663
:101B000014F064FADFE1A07C002839D013F07AFCED
:101B10000020A074502025F091FE1FF0FDF8D2E1C6
:101B200009A8002508262946324628F028FFA08863
:101B300021F008FA002845D007466069002815D032
:101B400006970790113000210622089027F056FAD8
:101B5000002800D1ADE0002706220798394627F07B
:101B60004DFA002800D18CE06761069F7879012149
:101B7000014009A88171B91D062228F093F9BDE042
:101B8000207D0026C1B28E42C4D2616A895D0129DE
:101B900006D1F0B20DF07EF8606A00218155207DFB
:101BA000761CEFE70BA8007826F084FF02460C2095
:101BB00007400C2F52D0082F56D0042F58D1D007F1
:101BC00056D125E726F066FF002800D1A7E0D048CF
:101BD0000078042112F072FAA1E0CF4800210A46F1
:101BE00002F06CFCA08805211FF0BCFA02E0A0887E
:101BF00022F044FB0125C748C06A002800D162E1F9
:101C00004368002B00D15EE1A088627802219847EA
:101C100059E10521284627F03CF930E0042027F05F
:101C2000C7FC50E1079C204626F054FFB948807D50
:101C3000C1B28F4200D363E62188002905D0A27883
:101C4000089827F035F9B348807D7F1C241DEFE705
:101C5000A088032127F01DF9089D34E1D00700D1A9
:101C6000D6E6100704D4D3E60920024200D1CFE61D
:101C70000BA80178A37C009628461CF06EF901257C
:101C800021E105960798007C0121014007913E461D
:101C9000761C08980670009707993A463B4611F063
:101CA000D1FD002801D13006F2D13006059E00D1C9
:101CB0005AE76269002A069F20D00596107C012110
:101CC000014009A881710892164611360622314654
:101CD00028F0E8F87879012805D138460C30B91D8C
:101CE000062228F0DFF8B81D0622314628F0DAF87F
:101CF0000898007C022101437971059EA179387909
:101D0000FD220240480802230340D0183871090719
:101D100002D4DF21084001E0202108433871A07976
:101D20004107C90F09AAD37906401E430E43D67155
:101D30006169002922D00BAE102730463A4628F0C0
:101D4000B1F83046394626F0A5FD744800780D27D5
:101D5000734EC1B28D4211D23168C9190A460D3A8B
:101D60001278FF2A07D00BA8102226F063FF012863
:101D700005D06A4800786D1C1E37EAE7FF2509A8E0
:101D800081790026009610AA334611F05BFDFF2DE5
:101D90001DD034281BD15F48C07C012864D00028A6
:101DA00015D15F4801681E226A438818401C895C6F
:101DB0000025009510AA2B4611F044FD002806D1FD
:101DC00010A800780CF066FF002800D18AE009A86E
:101DD0008179009610AA334611F034FD002824D0F2
:101DE00021F0B8FD10A9087010A800784949097DB4
:101DF000884218D2A26825460C352ACD0F69009575
:101E000001910297039609A90CF0A8FB0546A0884A
:101E100018F0D8FB002D59D010A800780CF03AFF2C
:101E20001EF07AFF25E0152523E060690028DBD04D
:101E300010A8017806204843233010210BAA27F070
:101E400051FC0028D0D10BA8FF21102227F0D6F892
:101E50000028C9D109A98A790120104027F0EEF99C
:101E6000C2E7C046A8870020A08805211FF07AF9A4
:101E70000125A08821F08EFD60780B2802D1A08872
:101E800022F0FCF9234EF06A002812D04368002BA0
:101E90000FD0A0886278012198476078002808D187
:101EA000A079C00705D0F06A4368A08803212A46BC
:101EB0009847012526F0EEFD002804D0144800784C
:101EC000042112F0FBF8284611B0F0BD1148417D05
:101ED000A088002902D021F05DFD01E020F0A8F9E2
:101EE0003546C9E71EF018FF21F034FD10A908702F
:101EF000A1680891E1682369626900292F4600D032
:101F00000F69009201910297039509A9089A7BE74E
:101F1000F57A0020A887002009040000EE7D00204B
:101F2000907D0020F0B591B00446DB2041006B208D
:101F30008200C32040000F90592080000E90452061
:101F400080000D90FF273E4612362546F035002CC6
:101F500006D100200C910B9227F02AFB0B9A0C99CA
:101F60006318A2180F98201808900E9820180C904B
:101F70000D9820180590A0190790204686300A90E9
:101F800020467C30099026467736214676310D91E1
:101F90002046673002900A37E01906900B952846D4
:101FA0001F462B460A331094144632460F930E9662
:101FB00010790026002800D116E3107818284FD891
:101FC000800001A1085887462D20000081200000D4
:101FD000492400009B2000007920000079200000A7
:101FE000F52000001D2100003B2100005D210000C4
:101FF00077210000A5210000BB210000792000000E
:1020000079200000EB210000792000002722000049
:1020100035220000792000003D2200005F220000F0
:102020007922000079200000AF22000029F006FC90
:1020300000D022E2FC48807A002800D124E20A99EC
:102040000878400008704888400048808888400030
:10205000888008890001088101200999887107E1B9
:10206000FD2800D137E1F02800D197E2FC2800D10B
:10207000BAE2FE2800D19AE2002027F099FAC8E1DE
:1020800029F0DCFB00D004E2FE48807A002800D171
:1020900003E201200A998872EAE029F0CFFB00D020
:1020A00002E203970494F748C07A002809D00C98FC
:1020B0008078012805D100210C98817010981BF0C0
:1020C000EFFD0B9CA07B012800D010E100212160D6
:1020D000616001220A988273109CA07929F0FBFCB0
:1020E0000621FF22204617F07BFF0E9A0F9B049CCF
:1020F000039F5DE729F0A2FB00D0DCE118780128FE
:1021000000D093E110981CF059FA0E9A0F9B002012
:102110000B99087218805880988049E72546109CD2
:1021200020461DF0B7FD012800D05DE220461CF0DE
:1021300045FA0F9B0E9A2C463AE729F07FFB00D018
:10214000C5E10B98007C022800D0CCE12546109C0C
:10215000A1790020069A1AF045FAA5E029F06EFB55
:1021600000D0CCE1C748C07A002800D17BE11098AC
:10217000418CC1837DE029F061FB00D0C3E10B9865
:10218000C07A012800D051E100210A9881732546C8
:10219000109CA0790A4629F09EFC0B21FF222046C4
:1021A0002C4634E129F04AFB00D0B3E1B548C07AAF
:1021B000002800D13AE1032127E129F03FFB00D0BC
:1021C000ACE107990878012800D0B0E148780128EF
:1021D000109E00D0E5E0B1790598027843888088A8
:1021E000009000201BF0CCFBDBE029F027FB00D0A7
:1021F000ADE10C984078012800D096E00C98007F63
:102200000F2802D0002027F0D3F900210C9841704C
:10221000407F1A28109E00D0BEE00021FF223046E9
:1022200017F0DEFEC0E029F009FB00D093E1F5488D
:10223000807A1AE029F002FB15D090E129F0FEFA2D
:1022400000D090E1207881067CD4810700D40AE197
:10225000FD210840207000200899087008E029F04E
:10226000EDFA00D081E1E748C07A002800D1FAE019
:1022700010981CF0A3F9CCE029F0E0FA00D079E145
:10228000B878810675D4C10700D090E0810700D4EA
:10229000E9E0FD210840B8702546109CA1791A207C
:1022A0000022134610F0F0FF20462C46E1E729F00B
:1022B000C5FA00D060E1D348807A002800D165E1FA
:1022C0007978B878002956D0DF210840B87001200D
:1022D000A071109E65E009980179FF22109817F00F
:1022E0007FFE0E9A0F9B01200D99087060E6E07B3F
:1022F000012877D1109D28461CF060F900260A9825
:102300008673A8793146324629F0E5FB0125029F04
:102310003D7010981EF0A6FA7D71109A6673617A6E
:102320009079062978D1062177E00C9880780128E9
:1023300064D100200C9988700F212322109822F07C
:1023400023F966E0DF210140217001070CD5D72178
:102350000840207010988079089E718AF28AB38AAA
:10236000368B009612F054FA0020089908701098E5
:1023700018E0182149E08106109E08D5DF210840A9
:10238000B870B1793A780020134610F07DFF022032
:10239000A0710120787104E000910A460B4612F00A
:1023A00013FD30461CF00AF90F9B0E9A00E62646F4
:1023B0000C99097F162903D0002027F0F9F8B87886
:1023C000FE210140B9700C98407F109CA179002239
:1023D000134610F059FF20461CF0F0F80F9B0E9AA0
:1023E0003446E5E50598C0790128049C1ED1109873
:1023F0001CF0E4F80E9A0F9B039FD9E50C98007827
:10240000012830D100210C980170FF22109817F09C
:10241000E7FD0E9A0F9BCBE51A21002216F05CFD1A
:10242000049C039FC0E7C0463C7A002028F081FD51
:1024300000D0D9E00B98017AA079012900D0CAE038
:10244000222117F08DFCCAE00D9D2878012800D0CC
:10245000CDE06C48807A002805D0109C20461CF006
:10246000ADF81621BCE009994888401E4880000458
:10247000109800D0B8E02221B3E0109816F0AAF925
:102480007EE0C0463C7A002010984289099909896B
:1024900007E010981BF036FC72E0109842890A9908
:1024A00089898A4278D09FE0109814F07FFB28F049
:1024B00091FBC68198E010981C461EF085F80D9996
:1024C0000870099908884880002626708CE01098CA
:1024D0001AF0A4FA0D99087009990888488001201B
:1024E0000B99087480E028F024FD7DD1A179222683
:1024F0003046069A1AF076F82046314671E0109878
:1025000018F020FD3CE010981DF099FB28F062FBCC
:10251000C67269E010981AF037FF31E00120079980
:10252000887010981AF064FF0D9908705CE028F02C
:1025300000FD59D1A17905980278438880880090E0
:10254000222528461BF01CFA2046294649E010980F
:1025500017F0FCF914E010981CF090F810E01098B7
:102560001EF07AFC0CE0142100E01521109817F001
:1025700076FE05E0162100E01821109811F0D4FF36
:102580000D9908700999088848802DE022891098D3
:102590000189491C914227D1282122E01948007D58
:1025A0000028109A20D00598017A104619E0099861
:1025B00000790F2820D1FC21FF22109C204617F023
:1025C0000FFDA0790C9CA188E2882389648900947E
:1025D00011F09EF908E02221002216F07DFC222154
:1025E000204625F09EFF0126304611B0F0BD109820
:1025F0001CF073F82870F7E70026304626F0D8FF65
:10260000F2E7C0463C7A0020F0B597B0002316935D
:1026100015A8FF21017014A80B910170BC48017F1F
:10262000427F12025118827FC07F0002801800048E
:1026300040180790B74810300C90B74D0A93069396
:1026400008931E460C98B54915F0C4FB002800D12C
:1026500042E2A968002900D13EE20A7B002A00D1AB
:102660003AE282780F908218101DD2780F27144614
:102670003C40129208D03A40062A00D984E0012357
:102680009340562213427FD00A6A5278002A0CD017
:10269000C969497802220A43022A06D1A049096879
:1026A0000A7849788A4200D116E2012C01D005212E
:1026B00000E00B21C943421C0E92007808181190CB
:1026C000224698480078800703D496484078C00690
:1026D0000DD595484069002809D01546202028F0DE
:1026E00085FD002837D0064601232A4602E0002354
:1026F000002EA6D00D203070012010907070304652
:102700001A300D90002575773577F576B576002C63
:1027100008D012980740062F5DD81098B84056216F
:10272000084258D0062A139344D8900001A10858B3
:102730008746C04651270000A9270000AF270000A8
:10274000B5270000BD270000B5270000D1270000F5
:10275000F57013206CE0ED4840690028089BE84DB7
:1027600000D16EE7E8484078C006089B00D468E7CF
:10277000E648C26B002A089B00D162E70E200024C5
:102780002146904723465CE7017842783F23134077
:10279000DD43491911919209801C002B40D0411C46
:1027A0000E91007806903CE0F570152040E0F57041
:1027B00010203DE0002026F0FBFE3AE0D048806883
:1027C000807E06282FD0002830D1F5701B202FE006
:1027D000F57012202CE00F9C2046154624F0ACF931
:1027E000F073E07814AC2070049415A8039016A838
:1027F00002901198C0B20190129800900698C3B24E
:1028000030460E992A4629F08EF902462078410674
:10281000C90F0A913F2101402170B94DBE4FBAE066
:102820000E90B74D4DE7F5701A2001E0F5701820B5
:10283000B070B34880688476701D062209900E9FA0
:10284000394627F02FFB129B5806C00F3071B91D77
:1028500030461330012C0CD106221C4627F022FBF7
:10286000E009B0740D98C570857045700570757677
:1028700021E0129100240622214628F080F80B98CE
:10288000B0741198707600069E4F15D01198C0B2A2
:10289000074628F0ABFC0D9A1070010ED170010CA8
:1028A0009170010A5170002804D012993A4627F01D
:1028B000F9FA00E07476934F0F9C204624F03CF91F
:1028C000F073E0783F21014014A801701098F07275
:1028D00035730B987073F077B0777F20B073757491
:1028E0003574874DA868016A4978491E012950D876
:1028F000C069407803284CD8800001A10858874659
:102900002D290000872900002D29000087290000BB
:102910003CFB020024780020248E0020B47C0020A0
:10292000247D00208C7C00202C76002038683279B1
:10293000099C21461DF0D9F91F282AD1386832791F
:10294000002321460DF0E6F8002822D138683279BC
:10295000214618F08BFF03466748006839680F79F5
:1029600022464C792402E7198C79C97909020919A0
:102970000904C919DF00CC19C95D64782402611803
:1029800023F093FD05E062480068327909991DF053
:10299000ACF9614F139A002A0AD01198000607D0AB
:1029A000707E002804D1B0789F2101404031B17081
:1029B000584800780028139250D03079741D214671
:1029C00027F063FB00282CD03968204621F0D0FA8C
:1029D000FF2826D039681E274743C8190D3027F035
:1029E0005FFB00281DD14C480068C019C01D06259A
:1029F00021462A4627F056FA0A98C1B2304629F0F5
:102A000080F80A9044480068C019411C20462A46B4
:102A10003B4D27F047FA40480068C05D0221014362
:102A20003171B07C34461334214627F02EFB002848
:102A300014D0394F39680D31204620F0EBF80028CA
:102A40000AD03868411C0622204627F02BFA386845
:102A500001780220084300E0FE20B0740A98C0B25A
:102A600029F059F800283DD1A868C06940780128AC
:102A700005D02849097800290DD003280BD1244C12
:102A80002068711D3279109B1A4018F0EFFE216802
:102A90000978884216D01398002813D00798007E32
:102AA000002804D014988000317B0143317317480B
:102AB0004269002A334600D1C3E5042031469047DD
:102AC0003346BEE527F016F901D028F093FB3046D7
:102AD00028F090FB3346B4E508490C9820F0FAFF43
:102AE00017B0F0BD27F006F901D028F083FB30467F
:102AF00028F080FBF4E7C04624780020B47C002056
:102B0000248E0020247D00208C7C00202C76002048
:102B1000207D0020AC7C0020907D0020F0B5A5B089
:102B20000446E8484068002802D08047002842D088
:102B30000321FD4BFD480078421E1394002C0E9299
:102B400000D001220904169159780F919D78DA730B
:102B50001F461837002415941495C0B2844222D21F
:102B6000A5421BD0E5B2002117AA04262846334609
:102B700027F090F817981699084202D01599491C29
:102B800015913043C0B27C2806D10621F82628468C
:102B9000324627F08BF83E70E34B149D641CE348EB
:102BA00000780C37D9E71599C9B2401E884204D184
:102BB0005879002801D100202AE201200C901398B6
:102BC000002800D1102009900C98C002129000201B
:102BD000089005900F9D0E9C0899200400D1E5E116
:102BE0001591D87B002801D10120D873EEB20027BF
:102BF00017AA04233046394627F04CF81798139942
:102C0000002913D01699084213D0701CC7490978BF
:102C100020F060FE0D46C44B129818825973D87B81
:102C2000401ED873641E1599491CD6E70B970F9D5B
:102C300002E00E9415990B910F95C0B2702804D044
:102C40000F98C0B2702122F0D5FC1498C7B20025AD
:102C500017AE042338462946324627F01BF8307851
:102C6000FE2803D0FE21384622F0C4FC0621FE26B1
:102C70003846324627F01AF80C2210467843E74CC3
:102C80002146163110970F18B81C0790BE70149883
:102C90002073129820820F986073C6B2119210466A
:102CA00070430818C0880D906082FF20A073A58231
:102CB0007D208100DC48049128F0F2FAD6480570A6
:102CC000E07BD84971180818D5490E7800B2314612
:102CD0001CF034FF0F9B22461491B81D0690F88813
:102CE0000A90109F1595F6B20D99DCB2BC4200D146
:102CF000CAE0E80700D0DDE08FB2162F19D815988A
:102D0000002803D011986043101881831498C0B232
:102D10008442109F00D1D7E0601C28F01FFFBF4AFB
:102D20000B460846119948431018818B00251595CC
:102D3000DBE7B9480078002800D03CE70F930D91FD
:102D4000CE1FB1B218AD20462A4619F0B7FCE9896A
:102D500008461030B8420CD8A87A962809D1751ABE
:102D600018A8427AA8B20E4623461CF090F9002813
:102D700034D00D99491E0846A84A0F9B0B9E109F00
:102D80000D460D9080B2162800D80DE1362803D8E4
:102D90000D980646163E01E020260D98801BB3B222
:102DA0000D9081B21DAA204626F074FF9B4A0F9B0E
:102DB0002946300408D0B0B21DA94018401E007842
:102DC000962804D0761EF3E70B9E0D98D9E70D9850
:102DD00030180D9000259248067884E7029518A8CF
:102DE000C07A0025C10707D180078C4A0F9B109F2E
:102DF00008D402980D90EEE702980D90874A0F9B39
:102E0000109FE8E7F61D0A9880B2B1B2091812982F
:102E10000191814201D90C9DDDE77F480078029F36
:102E2000310420D000281ED10D96B6B204988642F7
:102E300000D3049EB9B2204603977B4A334626F05E
:102E400029FF0A9FB9B21098774A334622F014F846
:102E500071490870BF190A97039FBF190D998E1BFE
:102E60006E4A0F9BDCE71598401C1590019CA0B2A0
:102E70001299884204D102980D900A940C9DBFE7E4
:102E800002980D900A94BBE763480078002800D0B0
:102E900091E664483018001900B231461CF04EFE2D
:102EA0005E4A0B46C8B2119948431018818B139C97
:102EB0000B9E11E01598002807D011984443101973
:102EC000818302E074890020149B139C0B9E52485E
:102ED0000078002800D06EE608460A991182908298
:102EE000937306980180517B1220125E01233846AD
:102EF00024F028FB4948817B1420484A125E0223B3
:102F0000384624F01FFB4548008A1299081A002C05
:102F100004D00999884201DB0C99059109998842EE
:102F200006DB7C2105E0C046F4730020C17D002053
:102F30007821384622F05EFB0EF07CFA05463846D2
:102F4000364FF97B491BF9730621FC24224626F0F3
:102F5000ADFE07980470B878B1B269180818304906
:102F60000E7828F0FBFDB9701491481CC0B228F00F
:102F7000F5FD7970B97B119848433818808B10287B
:102F800004D1481C28F0EAFD244B00E03B460F9199
:102F9000139800280C9801D00598C0430E99491B3E
:102FA0000E91C00702D015E6139C90E77C2023F019
:102FB000E7F80446FF281AD17E2023F0E1F8044602
:102FC000FF2814D115494C780C2060430818807DE7
:102FD000FF2808D08878124909784018401E1CF054
:102FE000ADFD0C4603E07E21204622F003FB0B4D95
:102FF000EC70E0B20C2141436818808BE880A8781F
:10300000FE2122F0F7FA00206871288A1299081A26
:1030100000B225B0F0BDC04674890020F4730020D2
:10302000C17D0020FFFF0000585E0020F0B59DB07C
:103030000446FC4E3078FC4D2870032800D025E172
:1030400000203070287011A828F09CF9002800D0CA
:103050001AE101200E9011902846243011A920F089
:10306000C5F8002800D00FE10E98C0020D90F44F73
:103070005E21384628F014F90C370A21FF22384621
:103080000C9227F0B9FF23F015FD00201090214687
:103090001EF042FFA86029460C3128F0D1F92C69B6
:1030A0006D692046294620F015FCC2B2062A00D3DD
:1030B0000622E3480270E34F3A700D98854200D033
:1030C000E2E0D002844200D2DEE0DC4880680028E2
:1030D00000D1D9E0DA49109E4E710C9BCB700E984E
:1030E000C002C8800696099607960596049608962B
:1030F0000A96019303930293D1B28E4200D3C7E0A4
:10310000F4B200251CAA04232046294626F0C2FD5D
:103110001BAA20460F952946F54DA84701271AAA54
:1031200020463946A847022119AA2046A8471C99DB
:10313000C8B20246703A0E2A04D83B469340ED4A84
:10314000134203D10246FE3A022A03D28A0CEA4B0A
:103150009A421FD0204611F091FEE14908700028E4
:1031600000D0CCE0354600261CAA04232046314678
:1031700026F090FD1BAA204631462E46DC4DA8477E
:1031800001211AAA2046A847022119AA2046A847C9
:103190001C99C8B20C2210967243D24B9E1833462B
:1031A000163318700A0AF2758903890F71761BA904
:1031B00089783176FD2801D9102127E01BA90988DB
:1031C000CE4A914222D10B930F9814900D9DA8B234
:1031D000051FA9B214AA0423204626F05BFD14980B
:1031E000411C03D12946C64A1140F0D139460B9BF8
:1031F000FAB2042A06D8C2B2FF2A00D03946000A21
:103200007F1CF5E7C8B2281881B21878B1831AA9D3
:103210008978B1761A99F18319A98978F176199983
:103220003184702810D07828AF4F109E12D07C289F
:1032300014D07E2817D0FE281BD0FF281ED1069858
:10324000401C069002961CE00898401C0890A64F6F
:10325000109E16E00498401C049012E00598401C53
:10326000059003960DE0B0B201900798401C0790BE
:1032700007E00998401C09900C9602E00A98401C4F
:103280000A90761C3A7837E7012030701DB0F0BD07
:103290000A9800060BD10998C0B2012807D80898EF
:1032A000C0B2012803D80798C0B2012810D98F48AE
:1032B000042101700024D1B2E0B2884210D211F092
:1032C000DDFD874A117801431170641C3A78F2E7FA
:1032D000D4B20698C0B2A04214D184480021017033
:1032E0000020804C6070511EA170E070A18BE180C5
:1032F0007E2122F07FF9A078FE2122F07BF9784828
:103300000078C3E70898000622D00998000604D187
:103310000698000602980C9073D07448022202703E
:10332000704E0C9CB470A0B2401C20F0D3FA7170A7
:10333000E4B2204611F0A2FD69490870FE21204642
:1033400022F058F90E9870710020FFF7E7FBD6E7DE
:103350000998000619D065480E9A0270614C0C98C5
:10336000A07080B2401C20F0B5FA6170039880B262
:10337000FF2819D10198FF284AD15A4AD1700C2050
:1033800048431018808BD080B9E70598049908430A
:103390000006554F8BD024F0C1F8A04200D38EE038
:1033A0005248032101704FE04E4A0399D1700C211D
:1033B00041435018808BD0801828A0D3C11F039898
:1033C000C0B289B214AC224619F078F9E07A40070D
:1033D000BAD54449C878C98814ACE289891AC91F8A
:1033E0000022009289B20323224608F05DF90028EA
:1033F00085D1A189002982D014A8007C20F0AAF9E7
:103400007DE724F08BF83949A0420FD306200EE067
:103410003449019ACA700C2050430818808BC88028
:103420006DE7C0464D8A0020748900200320087093
:10343000032809D0062852D061E7C04674890020CD
:10344000F4730020C17D002024F068F80446254E66
:1034500030730C25284660433018817E7173C07E1E
:10346000B0730DF0E7FF00191F490C78214620F0DA
:1034700031FAB170481CC0B2214620F02BFA7170AD
:103480007C2022F07DFEFF2810D17E2022F078FEE5
:10349000FF280BD1FF2022F073FEFF2806D17820F1
:1034A00022F06EFEFF2801D10E4840780D49C87009
:1034B000C0B245434819808BC88088781CE70698BD
:1034C000000609D007488078FE2122F093F80648CC
:1034D000017802980C903EE7044806210170FEE74F
:1034E00074890020F4730020C17D0020CE7D00206F
:1034F000A5AB02000151000083250000FFFF000082
:10350000FCFF0000F0B587B016460546041D5004C8
:103510000595029442D40191C805C00E00D188E0FF
:103520000120009000043146814303910020069061
:10353000854C86480068042800D286E00496002066
:1035400022F0EEFD80B2451D2F468148074060699C
:1035500039461FF0E7FB06466069864204D0082022
:103560000699014306916661002E67D0A908F0898B
:103570003546103528181CF087FDF0892918E279A6
:10358000CA70C019F0810420069901430691059D77
:10359000286B083024F066FD039ECAE704962E4689
:1035A0002C36FC4C24F074FC03902F6B7969B869BD
:1035B000009121600002F5490860F548808DF64CC5
:1035C000E08123F0E7FFF249888600200190EE4970
:1035D00008820697788AED49888010206071688893
:1035E00023F0ECFF0446307818F038FB2946822798
:1035F000002821D0054608462D30007821F0E8FB50
:10360000002800D0B8E0032C00D0B4E00698007C7D
:1036100041424141284602F0B3FE22F039FDDA482A
:10362000019AC285B056C1B2402900D2D5E01146F8
:10363000D5E00020069011E00D469EE085206071E7
:10364000D84800990160059D049EA079002804D007
:10365000686BD249C9681AF0C5F9029C01988004C8
:1036600031D50496CC4E7089CF494968411A422021
:10367000375A0391B94225D24420345A286B24F09A
:103680004FFC002810D0022101728189491DC74AD0
:1036900011407F1AB16B884202D10020B063F06301
:1036A000641E0398B842E9D3039887420DD1002CD9
:1036B0000BD4383603987081B481102006990143E9
:1036C000029C09E0049E06990AE084207071B548C6
:1036D00001210160029C0699B448001D049E064326
:1036E0007006C70F0F430120C503681C01990142F2
:1036F00038D0032000BF00BFA44880880599096B1B
:1037000048820224A4484079102825D101982840F5
:103710009F4800881ED1411E062900D9A1E0132030
:10372000890001A251588F465937000045370000E3
:103730005F3800006338000063380000673800001D
:103740006B380000142007E050750020CC110840B1
:10375000FCFF01001EF070FC2743029C2178000250
:1037600008182080B807059D14D5686B8B49C96877
:103770001AF038F90EE02746059D049EF8B20F288E
:1037800001D8002000E00120029C21783A0289182B
:10379000218047006078000203210902884213D18A
:1037A000F00306D5286B083024F05CFC01200004EF
:1037B00086437E48001D064206D0286B764A383282
:1037C0000023D9430CF008F8B80703D523F004F917
:1037D00026F080FE384607B0F0BD402211436E4A05
:1037E0007F240028059D049E01D4084600E0204067
:1037F000674948861179002904D00006009948409D
:1038000064490860FF2061498882284603991CF0BA
:1038100037FD07460F28B1D8686B002500282946D8
:10382000069F594B44D05D49C96899610021417098
:1038300084700278D2071CD1544AD18511865186F2
:103840009186D186118751879187D18719805980B8
:103850009980D98001758160C160016124E01520E3
:103860007AE7102078E7412076E7022017F0B6FAD1
:1038700072E7017A454AD185417A1186817A51866B
:10388000C17A9186017BD186417B1187817B5187EB
:10389000C17B9187017CD187417C1980817C5980D3
:1038A000C17C9980017DD9800078022101404908BE
:1038B000394CA171029800780128284604D1374874
:1038C000C0680599C969081A019023F053FF23F0D5
:1038D00099F8208165610598006B083024F0C2FBDF
:1038E000012624F0F7FF6081387C00282B4604D0A5
:1038F000788A182101404B424B4136042246383227
:10390000A563E563157255819581022138460392BE
:103910000BF062FFA2791E48808D2149002A02D057
:103920008031084602E04007400E4840059D04995A
:10393000B1430E4627F0F6F9387C002806D0E98D11
:1039400001984018012803DB032702E004240CE05F
:103950001327002902D0012800DA0FE7002900D13F
:103960000846094948810324069F27F0DBF8022016
:1039700000BF00BF0B4804600023D9433846039AB8
:103980000BF02AFF0327F9E67C2009403C20094080
:103990000620094040140840507500207C78002023
:1039A00071A1000030100840CC110840FCFF01005C
:1039B000F0B591B027F0CEFEA7214900099040183C
:1039C0000890E74D28460C30202127F069FC284656
:1039D00032300E2127F064FCE2480024E24911C590
:1039E0002960E24868620126300202902885083D7D
:1039F00027F0ECFF7D2149014118E961DC48C068EE
:103A0000C160A9883143FE2203929143A9800F9699
:103A1000EE71D8493922895C4A1E91413123EA5C12
:103A20004900FD26324051180793E9542C212522E4
:103A30000D926A544069407A401EC1B20629109422
:103A40000E9603D22D22CA40D10703D1CB4800786D
:103A5000400002E040B2C849085C0C90C84CC94D17
:103A6000BF4FBC63FD6326212046069127F018FC5A
:103A70000F9EE684C448A062109929807F20A87018
:103A80006960A960E96023F03BFAB948C068416900
:103A900009780D9D625D3140039B1A4051186155B4
:103AA0002921C900099A51180091089909784A1EDC
:103AB00091412425625DB24351186155827A531EAB
:103AC0009A410E9B0B405100C91805956155011D87
:103AD00026461836062530462A4626F0E3F91E34D7
:103AE0002046009901952A4626F0DCF9A74800787F
:103AF00000281DD0A64D28680D3026F0D1FA0028E8
:103B000003D09F4A0D9BD05C0AE02868C11D0622A5
:103B1000304626F0C7F99A4A0D9BD15C0420084331
:103B200008210143D1548E4F029838610198786181
:103B30000998054662352C300490964A8C48C06836
:103B400040698E49097827F002FA504378620C9850
:103B5000C0B278809048007820F05DFE2D21785426
:103B60008E48A822109C214626F009FF26460A947A
:103B70000C940B94A82C00D18CE0884807190020E5
:103B800038728748F8600F983882864880784006F7
:103B900001D50D9800E00520B8742221F97474490C
:103BA000C9688A7A002A01D00F9A0B920E96109457
:103BB000089A1278002A01D00F9A0C920B9A92015F
:103BC00010180C9AD2010243BA7438461430091DF9
:103BD0000624224626F066F938461A30644EF1680B
:103BE0004969C91C224626F05DF9099A506A386273
:103BF000906A05997854906A000A0D997854508D0E
:103C000006997854272002213954108E3885287857
:103C100030217854687807997854A87832217854FC
:103C2000E878332178542879342178540499087835
:103C30004001097C1F220A40101835217854F06891
:103C40004069417A0E9EF140C9070BD00A9BD9B258
:103C500009014018014610310246123214305B1C33
:103C60000A9304E001461031024612321430109CCF
:103C7000037840780002C018137852781202D218E4
:103C80000B7849780902C9187985BA85F885761CB8
:103C900038346FE7394C2078382141433F48411888
:103CA000374F3846083026F061F83148C06840691F
:103CB000017801290FD13D4909680A794B791B0226
:103CC0009A188B79C9790902C91809048918091F3A
:103CD0003960234E20E008990978039A114002299F
:103CE0001F4E19D12520395C0125294339542E4C0A
:103CF00000218422204626F042FE2560A088032170
:103D00000143A180A01D0622009926F0CBF83C605B
:103D10001A4C1748C0684069217827F018F91D49E6
:103D20004143716222480021022231617261B06117
:103D300016480078002811D0154800680D3026F08C
:103D4000AFF925217A5C002801D104200243082024
:103D500010437854029830610198706111B0F0BD41
:103D6000B47600200210000091000000250030759C
:103D7000248E0020D08A00206C050300C97D00201D
:103D8000F8770020387B002000001B0DAC7C002061
:103D9000907D0020C4090000C77D0020946D0020A4
:103DA00028000302E47A00208C700020207D00208F
:103DB000614D0200F0B587B00446D54F3868002841
:103DC0000FD0C07A0C2501280CD0042021F098FDDA
:103DD000012807D0CF4800780938052805D22125C9
:103DE00000E00725284607B0F0BD1225002CF9D0C9
:103DF00020780128F6D800286AD0A0780328F1D8C6
:103E000060780328EED8667A05200642EAD00120C1
:103E100002908003059000221920C00106901146EF
:103E20000396032A5CD03046D040C0074ED00491A0
:103E3000C8B200012318987AD97A0902091804290E
:103E4000D0D305988142CDD8187B5E7B36023018DE
:103E50000428C7D3059EB042C4D88842C2D8187E71
:103E6000597E09020818997DDE7D36027118884254
:103E7000B8D3987BD97B090209180629B2D30698D2
:103E80008142AFD8187C5E7C360230180628A9D350
:103E9000069EB042A6D88842A4D3987CDE7C360227
:103EA000301886087C2E9DD81E7D5B7D1B029B19D9
:103EB0000A2B97D3069EB34294D8DB00401C48439C
:103EC000400083428ED90499491C039E521CA8E7E6
:103ED000E01C0021062225F091F8002882D18CE711
:103EE00038684461B01F414241418B48017002F083
:103EF0004FFF00280CD00646807939680874E01C12
:103F0000A178069027F022FC002803D00B2569E752
:103F1000092567E730462E360146623105901DF0CF
:103F20005BFB0496707B012803D805981CF0F8FA17
:103F300058E7617838688172012901D8001D32E0A4
:103F4000764E30680D3026F0ABF8002804D060784B
:103F5000C1070FD074490EE071480078002802D1E3
:103F600020780028F3D03868001D3168C91D27F07B
:103F7000DEFD12E06B4926F0A3FA002800D131E7FC
:103F80003868001D6178C90701D0674900E06549BC
:103F900027F0CDFD386800218172617802980140D8
:103FA00030680170401C002901D05F4900E05D4984
:103FB000059D2C3527F0BBFD207800285BD025F02F
:103FC0003DFB059EB06225F097FC70625248007878
:103FD00000012018017C427C120251187186017D7B
:103FE000427D12025118F186817CC07C000240188B
:103FF000B0863868407C28700220049C207027F02E
:1040000015FA718E1FF066FC318627F00FFA0C212D
:104010001FF060FC481DA07304200EF01BFF3968E0
:10402000086038680068414941604149416106249F
:10403000204613F0F6FD38680299C1723D490978AF
:104040000176B079FFF7B4FC354D287800280CD103
:10405000386841690978012907D1807A022804D19A
:104060002E4800680D3026F01BF82A4800780028FA
:1040700037D00025B6E6A7204000059A1618A37889
:104080002921C90050180196337006220390069E1C
:10409000314625F007FF21480068A178029A1140B7
:1040A000324615F0C7FAFF2889D01C4909681E2638
:1040B00046438819417F002981D10D3025F0F0FF5A
:1040C000002800D07BE7A07802210143019801700D
:1040D000124800688019C11D0622039825F0E2FEEF
:1040E0006DE72878002803D0134800681EF0B4FD5F
:1040F0003868007C27F07EFB06480470002501220A
:104100002046294612F0F1F900F040FD6AE6C0466B
:10411000308E0020E27D0020C97D0020907D0020AF
:10412000AC7C0020CC7C0020D47C0020B476002025
:1041300019510200BB8F0020207D0020F0B589B00E
:104140000446016CC26A20F07FFDE16F4A1C904278
:1041500001D935269BE1002813D0206C8A008718EE
:104160000837891C384626F03FFFA168384625F0FD
:1041700081FF002807D0E56F691C884205D9C62653
:1041800085E1532683E16C2681E123786626022BA4
:1041900000D27CE1052B00D979E1216C0A68012667
:1041A0003240032B334600D300235A408023089328
:1041B000E2500790E06720463A460B4614F0AEFC0A
:1041C00020784000001F3146814008982150216C22
:1041D00020460A4621F09CF8E567E16C204632460D
:1041E00025F095FF626EA06EE16CA36FE56F009500
:1041F000A84DA847A26EE06E27F03EF9A06EE26ED1
:1042000027F03AF9216F226B204620F01DFDE56F63
:10421000A84201D93C263AE100280ED0606CE26E3B
:10422000216F27F02BFC216F626B204620F00CFDE4
:10423000E56FA84203D9652629E1C32627E1064692
:1042400000280ED0A06C216FA26E27F017FCE16E43
:10425000E268204620F0F8FCE56FAE4203D95C2608
:1042600015E1562613E126468036A26EE16E206FD8
:1042700027F004FCE26C206D216FA36FE56F0095C1
:1042800001F06CF9E06F421C06963260666D002505
:104290002778B81E0123194681408D4209DA616CE6
:1042A000304626F0EFFD06980268900036186D1C27
:1042B000EEE70893A06D0025069EBB1E0899994065
:1042C0008D4206DAA16C074626F0DCFD26F054FE8E
:1042D000F3E7E06D0025BB1E089999408D4206DA90
:1042E000E16C074626F0CEFD26F046FEF3E7216C92
:1042F00008788007C30F07984001401C00260496E9
:1043000007960396089A019090426BD90593801AFC
:10431000B842069B00D338461860204608921FF02A
:10432000AFFD07994118C8B27A1E01252B4693406C
:104330009842029500DA00252A46BA40984200DBEE
:104340004842059B0799C9B207911018DBB2059343
:104350005349C95C049AD7B29E00524A92197B0015
:10436000D218525D920051180006800D001F0422E1
:104370009043081806990860204600F057FF68002F
:10438000494989190918079A895C07914749891988
:104390000818C05D04902778B91E45488019405C14
:1043A000089A12181420059B5843424B1B180520ED
:1043B00041435918039E8E5D216C53099B00CD58D3
:1043C0001F231340DD40029B1D40079B5D4045437A
:1043D0000A20059B5843384B181840190396835DF3
:1043E000019891E70798C0B2012811D10498C0B292
:1043F0008000C01C069E3060274D2046A847012043
:1044000030602046A847022030602046A847277821
:104410009926032F3BD30020C0430790B91E0120EB
:1044200008908840FE30069DC7B208982860002F8B
:1044300011D07A1C2046394605F060FD08982860A6
:104440002078801E07998140C94320463A4605F0EE
:1044500055FD781EE8E72078801E079F3946814089
:10446000CA430021059120460C4B984708982860C4
:104470002078801E8740FA432046059F3946074B27
:104480009847089A2A6020463946044B9847304698
:1044900009B0F0BD5D5500002D520000FD9E0000EA
:1044A0007205030088FD020058FD0200A0FD020015
:1044B00070FD020031E50200C0EF02007FB5154635
:1044C000D84A82181C2A48D8920001A39A589746C5
:1044D000454500005B450000734500009F45000016
:1044E000C5450000DB450000EF4500000546000023
:1044F0005B450000134600005B4500005B45000083
:104500002B460000494600005B450000674600005E
:104510007D460000A7460000D3460000DF460000AD
:104520000147000027470000394700005B450000B5
:104530004F4700005B4500006147000069470000ED
:10454000854700001824012900D05CE12878022862
:1045500000D958E1B449887054E102240E2800D9EA
:1045600051E1022900D04EE129881FF073F804467A
:1045700049E11824012900D045E12878012800D913
:1045800041E1A949012803D1CA78032A00D1F7E003
:104590000871002800D035E100244C710EE0182489
:1045A000012900D02FE12878042800D92BE19E4969
:1045B000C870032800D025E100248C80204626F016
:1045C00051FB20E11824012900D01CE128780128A2
:1045D00000D918E19449887114E1102900D0C1E094
:1045E000914854301022294625F05CFC0AE1182439
:1045F000012900D007E12878012800D903E18A4980
:10460000C871FFE0012900D0ACE028788649087322
:10461000F8E0002900D0A5E026F0E4FF002800D152
:10462000DDE0814801214173ECE01824012900D02C
:10463000E9E07D48827B2978022A00D0B3E0102986
:1046400000D0E0E01021B1E0012900D08AE07649F5
:104650000A7C287808740024002A00D0D3E00128BE
:1046600000D1C2E0CFE01824012900D0CBE02878A7
:10467000042800D9C7E06C494874C3E0072971D108
:10468000691C01AE0622304625F024FC297800245E
:10469000009403AA304623460FF0D4F8002800D136
:1046A00086E03424AFE01824012900D0ABE028785C
:1046B000022800D9A7E0002800D1A4E05A49887355
:1046C000022800D0A2E01020C873012026F030FE9E
:1046D00098E0012946D1287825F06CFB92E0524EF3
:1046E000307A1824002800D08DE0602970D1002D88
:1046F0006ED04E486022294625F0D4FB01206CE0A4
:10470000182401297FD1287801287CD846490872CD
:104710000024002877D00120487244484449602290
:1047200025F0C0FB6FE0182401296CD128780128FE
:1047300069D83D49C87265E00024012963D1287811
:10474000012860D83849887226F084FA5BE0182482
:10475000012958D1002D56D028783349087051E0EE
:10476000002918D018244EE0182401294BD12878AC
:10477000012848D82C49012841D10A79002A3ED184
:10478000022440E0182401293DD1287801283AD894
:104790002549C87436E026F025FF002828D0224895
:1047A000012181742EE0CA1F0A2A2CD2C17329E08C
:1047B0001D4DE87A002804D126F014FF002802D00D
:1047C000E87A012827D103A800780AF063FA08E004
:1047D000012918D1002D16D02878707212E023F02C
:1047E000ADFC0446502023F029F81CF095FA0AE0AD
:1047F00010F008FE0446502023F020F803E0487132
:1048000026F030FA0024204604B070BD0024204673
:1048100026F08EFDF7E7686A03A909780122425461
:10482000F1E7C04600FCFFFFA88700200C880020AD
:1048300054E70200F0B589B0BC4D2868007C26F032
:1048400089FF04466F20800020180290A7204000B6
:104850002018039026462E3628680025C57211F0D0
:1048600059FC012004906071082013F0DAF9B04976
:104870004878401C487080200EF0ECFA2060AD496A
:10488000496BC160AC480078382105914843AB4979
:104890000818018D490021862721405C40002E2107
:1048A0006054608E40006086E08E0001E086204605
:1048B000314624F085FB0520A081204623F042FEEE
:1048C0009F4F103706A839461EF00AFA06A812F0C4
:1048D0008BFB002805D00021384613F07BFA0546F3
:1048E000F4E7002D41D09748006827F043F8A879F5
:1048F0004006C10F2920C0002018039A1170A97921
:104900000F2203921140062900D90BE1049A8A4034
:1049100057210A4200D105E129460831062225F037
:10492000C1FA89480168A279059842438818874BE3
:104930008B50002286490192426081600C302C2706
:10494000394626F0ADFCA8790146039A11400629A4
:104950000FD8049A8A4057210A420AD07D498978A3
:10496000490604D40298016808E00721D3E08006D4
:1049700001D57A4900E078490298016020468847CD
:1049800071490968A279059B5A438918C855307343
:10499000B07AF072A87903990840072804D2572109
:1049A000C140C807019902D1A87D032101402046DA
:1049B0001DF0EEFD204627F070F82D255D4F785D47
:1049C00026F0ADFD002800D1A4E05F480068A17981
:1049D000059E71434018624909787A5D24F03CFED7
:1049E00060480068A1791C273A464A438018564D12
:1049F0002B6871435B181863286840185A49416353
:104A00005848006885181221284626F049FC0B20DA
:104A10006882019E6E61AE61534DE81C152126F03F
:104A20003FFC2E807F20A8704E4D2968A0793A4621
:104A3000424389180E7417F0BBFF28682E46A179EF
:104A40004F43C019494A136814254D435851106803
:104A50004019A0663068C019014608312167616AB3
:104A60004161A16A816142480078082529460FF01A
:104A700025FB2068C168344F3A68A379059E7343CB
:104A8000D218D161016181609088049B1843FE2196
:104A9000884390803868A17971434618F371618E1C
:104AA0003448027C437C1B029A18837CC07C000241
:104AB000C018000480180068484364211EF00AFFF3
:104AC0002D4941432D480818B0622068466027F000
:104AD00010F8002803D00821204619F0E1F82848F2
:104AE0000570A079124988702168264A4A61164DDE
:104AF0002968059B58430918234A8A6129680818C0
:104B00002121090201612868A17959434018162121
:104B1000416103E01221204623F003FD00F036F846
:104B200009B0F0BD29460A31F8E6C046308E0020B3
:104B30007C7C0020B4760020C97D0020946D00208C
:104B4000F87700206C8F0020607D002004100000AA
:104B500005350000E47A002079040200951A02006D
:104B6000C77D0020687D00203C7A0020AC7D0020BD
:104B7000C07D00203CFB0200C409000050FBFFFF89
:104B8000E27D0020CD040200BDE20100FEB5D04E62
:104B90007468002C27D02578681E1F2826D801218C
:104BA0008140CC48014221D03078002800D15BE11F
:104BB000012738461FF070FC002805D001201FF0A7
:104BC00089FC22F087F92578284608F0ADF90646D9
:104BD000002854D03078102879D88740BF48074241
:104BE00075D0756877E01EF0F1F9FEBD402D03D059
:104BF000802D01D0FF2D37E1B74D6878002845D0D2
:104C000026F0B4FD26F0A6FD074600680290406835
:104C10000190B879E87000210225384600912A46B3
:104C200026F07BFF032800D137E12078402805D10A
:104C3000B87926F068FF012800D12EE17078C0060F
:104C400000D134E1012420461FF026FC002804D0C6
:104C500001201FF03FFC22F03DF9B07808F064F924
:104C60000646002800D1E6E03078102800D9D6E0CA
:104C700084409A48044200D1D1E07468D3E0964859
:104C80004078002800D1EFE0002528E07078C006C9
:104C900000D102E1012528461FF0FEFB002804D0C8
:104CA00001201FF017FC22F015F9B07808F03CF94C
:104CB000002800D1F1E004460078102800D98EE0E9
:104CC000854086490D4200D189E062688CE030461B
:104CD00022F000F9054680484078002813D026F0DD
:104CE00045FD26F037FD0446076878680290A079F4
:104CF0007949C8700195002D1ED03046394606F01E
:104D00000BF9054619E000200122314626F005FF87
:104D1000032800D1C1E0B4423BD03078042876D0DB
:104D200002282A4677D0012800D09DE0002A00D131
:104D3000B3E0FF20294694E00225204631462A466A
:104D400026F0EBFEA84203D00328054600D1A4E0DC
:104D5000022D07D13978A07980290FD1029926F048
:104D60003DFD14E0002E7FD0307804282DD002289D
:104D700030D0012878D12846019972E026F0C3FE90
:104D8000012800D189E0A079029917F054FF384634
:104D90009AE02078411E07296AD8880001A10858A6
:104DA0008746C046C54D00007D4E0000754E000090
:104DB000874E0000754E0000754E0000754E0000D5
:104DC000C54D0000002D7ED167E028463146019A8E
:104DD000029B60E028463146019A029B61E0204632
:104DE00022F078F802462078042808D002280AD059
:104DF000012852D1002A50D0FF20114631E0FF2077
:104E00000023214647E0FF200023214649E0FF2000
:104E1000002331463AE0FF200023314641E030468E
:104E200022F058F80446002C05D03046029906F0CE
:104E300073F80546009400210222384626F06DFEE4
:104E400003282AD0022802D1022D28462FD0002E76
:104E50000AD0317804291BD002291FD0012923D17F
:104E6000009916F002FDFEBD002024F0A1FBFEBD5E
:104E7000102828D0002024F09BFB24E0FF200023F2
:104E800021462A460DE0FF20002321462A4602E063
:104E90003146009A019B26F0A5FCFEBD3146009AE2
:104EA000019B26F0A3FCFEBD002024F081FB029CA8
:104EB0002178B879802903D1019926F08FFC02E08E
:104EC000019917F0B8FE204613F0A4F8FEBDC046C5
:104ED0001C7C00208B8000807C7C00200201010073
:104EE000F0B595B0002A00D199E10E46074610931F
:104EF00011A810300B90002423462546505D002851
:104F000000D186E1252807D0022E03D3761E791C16
:104F100038700F466D1CF1E70D9309945219911CDE
:104F2000507803462D3B5C425C410F942D2802D102
:104F3000D21C087800E00A46302802D1531C1178B0
:104F400001E0014613462A290AD1109910C910918F
:104F50005A1C1978002C11D5644201230F930DE0DF
:104F600000240A46303A092A07D80A226243541814
:104F7000303C5A1C19781346F3E71A460923DB43E1
:104F80002E290A970C940CD111782A295CD11099FA
:104F900080C91091F9178F43941C517822460C9CBC
:104FA00001E01F46093707933028204600D0002033
:104FB0000690202308460E9318436C2803D1501CFA
:104FC0000890117800E00892079B0846633815287E
:104FD0004FD80A24800001A210588746655000006F
:104FE00035500000735000007F50000073500000E7
:104FF00073500000355000007350000073500000E3
:10500000735000007350000073500000A550000062
:10501000A95000007350000073500000C5500000FC
:1050200073500000ED5000007350000073500000FA
:10503000EB5000000698874200DC0746109802C833
:1050400010900B983A465BE0521C00270C46303C0F
:10505000092CA4D80A247C436718303F541C1178CB
:105060002246F3E7109901C9109111AC2070012379
:105070004BE0022E0D9B00D383E00A9F85E0109940
:10508000C91D072081430F681091496800223846E6
:1050900007910592134618F039FF0490002879D142
:1050A000079C7BE0082421E0109802C81090082299
:1050B00010230B9F384615F047FA441E40202070FD
:1050C0003B1B22E0109901C910910028564C00D0DA
:1050D0000446204625F0C8FF87423B4600DB0346D6
:1050E0007A1C0D9912D1034610E0102406988742CD
:1050F00000DC0746109802C810900B983A462346E9
:1051000015F022FA04460B98031B0D994A190C98C6
:105110000D93C01A0F99002902D00A9F0E9D0DE031
:105120000A9F0E9D012808DB022E03D3761E7B1CEE
:105130003D701F46521C401EF4E7401E0D9B002B85
:105140000BD05B1E641C022EF9D3651E2D78761ED3
:10515000791C3D700E9D0F46F1E70D998B180F9944
:105160000029099C089A00D1C7E6012800DAC4E6A4
:10517000022E03D3761E791C3D700F465B1C401E29
:10518000F3E7761E0A9A571C1170099C5819431CA4
:10519000089AB2E60120C4070798444038462146E1
:1051A0001CF02EFC039021F01FFD02460B463846F2
:1051B000214605F021FD059A1A4B0DF083F91EF0EA
:1051C00025F9014604220A2301970B9F38460293D2
:1051D00015F0BAF9441E2E2020700698C71B0198BE
:1051E0000799059A134618F091FE002800D07F1EFB
:1051F0003A1920460399029B15F0A6F90446049833
:10520000002802D0641E2D202070109808301090C5
:1052100079E75819002F03D00021397000E00020F1
:1052200015B0F0BD0088C3405E050300F0B589B03D
:10523000044680202158C8080D460391E26F511C96
:105240004143E06DC9B28F00C019616F636C06AE57
:105250000BC6A807060F05A88159206EA36F009200
:10526000BB4D0A46A847606E26F031F905A8805963
:10527000A16CA36FE26F0092B64D0A46A847E06E9C
:10528000216FA26C636E06920791089305A9895954
:10529000E26DD2190497236EE56C06920793089588
:1052A00005AA26F023F9AA4DA847606EE16EE26CCC
:1052B00006AB07C305A88059E26F521C25F0E2FD3A
:1052C000E06E216F06900791089005A88059216E25
:1052D00026F0DCF89F4DA847206FA16E069007903E
:1052E000089105A88059A16DC919226E636E06AD9B
:1052F0000EC505A98959A26CE36C656F06930795E5
:10530000089205AA26F0F2F8914DA847606F216E29
:1053100006900791089005A88059A16E26F0B6F86E
:105320008C4DA847234660330ECB06930791089215
:1053300005A88759E56C606F06910795089005A947
:10534000895906920790089305A88259A36FE06FC8
:10535000009038467E4DA847226E606E616F06ABA6
:1053600007C305A88559E16EA36FE06F009028463A
:10537000784FB847216E226DA36FE06F00902846EA
:10538000B847E06C616E226E06AB07C305A8815971
:10539000E06E626FA36E06AD0DC505A8805926F0BC
:1053A00075F86B4DA847616EA06D049FC219E56E3C
:1053B00006A826C005A988590290216F226E636F46
:1053C00006910792089305A98959E26DD219636C79
:1053D00006950792089305AA26F088F85C4DA84721
:1053E000606EE16DC919E26E06AB07C305A880596E
:1053F000E16F4A1C029925F045FD206D26F067F803
:1054000005A88159206F226E06900792089005A882
:10541000805926F03BF84F4DA847606E616FA26E31
:1054200006AB07C305A88059216EE36E069207916B
:10543000089305A98A59A36FE16F0091464D014673
:10544000A847226F216E206D06920791089005A84B
:105450008059636E06AD0EC505A98959636CA76EA8
:1054600006930797089205AA26F022F8384DA84718
:10547000616F606D049D4019626C069107900892FF
:1054800005A88059A26E06920791089205A989592C
:10549000E26E236F06920793089205AA26F008F899
:1054A0002D4FB847606F26F012F805A88059626C3E
:1054B000636D5B1906920793089205AA25F0F8FF21
:1054C000254FB847616FA06EE26E06910790089273
:1054D00005A88059636D5B1906930792089105A989
:1054E0008959636E276E06920793089705AA25F0DF
:1054F000DFFF174FB847616FA06D4019A26C06918E
:105500000790089205A880590490A26E042303987E
:105510000340E76E606E069707901B1D05ADED58C2
:1055200006910792089505A98959226F256E069064
:10553000079705A8C05806920795089005A88259B4
:10554000A36FE06F00900498034CA04709B0F0BD32
:105550005D5500000157000089570000F8B444462B
:105560004D4656465F46F0B400B501B40B9B5B0058
:105570005B1C6C469B00E31A9D4610B46C46241DD0
:1055800000266D46009CE36A2D1D9B00EE505B00DB
:10559000EE50E36A013B9B0098465B00994600236E
:1055A00000240025002702E0370040463F1A9A46B3
:1055B000A346AC46B646F01B1458C859030C80B23B
:1055C000250CA4B21E006E436343454360431C0494
:1055D0001B0C00195E412C042D0C00196E41534622
:1055E0005C4665461B1874410020454176460437E9
:1055F000474501DCB742DADD6846001D835123468A
:105600002C46002504364645CCDD4E45CCDD835185
:10561000009B9969083102464E4604361068009B8B
:105620009C6924684443A1460027002300240025E8
:105630009A46A346AC46B6464C46C859030C80B2BF
:10564000250CA4B21E006E436343454360431C0413
:105650001B0C00195E412C042D0C00196E415346A1
:105660005C4665461B18744100204541D0591B1803
:10567000002044414541002F02D0043FD35104375C
:105680000437764623462C4600254745D0DD301D9D
:105690008742EBDD043FD351043E464500DDBDE7C4
:1056A00010BC2068E36A9B46024691466846012783
:1056B00020C840C97F08B5417F4120C2013BF7D1D6
:1056C00005682F430126F741FF17FE43684638401F
:1056D000494631400843494639406D4635402943E3
:1056E0005B4604C904C0013BFBD1A54603BC8E4602
:1056F000F0BCA046A946B246BB46F8BC7047C046BF
:10570000F0B444464D46564670B48146079CA246C6
:10571000002720C940CA7F0875417F4120C0013C55
:10572000F7D1B8464846083354466A46A400141BCD
:10573000A54604B46A46121D5446012720C840CB32
:105740007F08B5417F4120C2013CF7D14246174353
:105750000126F741FF17FE4348466946091D0D46DD
:10576000384031400843494631403D402943544682
:1057700004C904C0013CFBD101BC854670BCA046F5
:10578000A946B246F0BC7047F0B444464D46564672
:1057900070B48146079CA246012720C940CA7F08F1
:1057A000B5417F4120C0013CF7D1B8464846083397
:1057B00054466A46A400141BA54604B46A46121D4A
:1057C0005446002720C840CB7F0875417F4120C246
:1057D000013CF7D147460126F741FF17FE434846F3
:1057E0006946091D0D463040394008434946394055
:1057F00035402943544604C904C0013CFBD101BCD7
:10580000854670BCA046A946B246F0BC7047C0466B
:10581000F0B444464D4630B4884699466C469B00E9
:10582000E31A9D4610B46C46241D4B4608320127EE
:1058300020C940CA7F08B5417F4120C4013BF7D150
:105840006A46121D0125EF41FF17FD4341462940DD
:105850003A4011434B4610C910C0013BFBD101BC7B
:10586000854630BCA046A946F0BC7047F0B591B063
:105870001D46174610910446866A8168304622F01C
:10588000E9FFE067002804D00246FF2803D928205A
:105890002BE16C2029E1307AC00701D1822024E17C
:1058A000501C8300F058002839D00B9717980E90A1
:1058B000D0000A9087190837F8183146061D0C9356
:1058C000F018001D0F90204609910DF0B1FD204603
:1058D00039460EF049F9A36FE06F00903046394623
:1058E0003A46FFF70DFFE06F4001802160502046EF
:1058F0000F990D9632460E463B4611F08DFF01463C
:10590000E06F421C384625F0BDFA204631460E9A1B
:105910001FF09AF9E16F884203D92220E5E02320A5
:10592000E3E0002830D00C9830180E9026468036E0
:10593000A36F00910D980F993A46FFF70FFE20785C
:10594000801E0321089181400C310696316020466B
:105950000D9E314603F004F90146E06F421C3046CB
:1059600025F090FAA36FE06F00900F9831463A4609
:10597000FFF7F4FD20460E992A461FF065F9E16F06
:10598000884203D92720B0E02120AEE0002829D0AA
:10599000169805900E9D0C9828180790A36F0091FB
:1059A000384629460F9AFFF7D9FD25F0ABFFA36FC4
:1059B000E06F0090079839462A46FFF7CFFDE06F69
:1059C0003E4601C6A26FE36F30460799FFF720FFFE
:1059D00020462946059A1FF037F9E16F884203D91E
:1059E000112082E0722080E000287DD00396079E7F
:1059F0000C9AB018801880180490A36F00910C972F
:105A00000D9F38460E9D29460F9AFFF7A7FD25F0FA
:105A100079FFA36FE06F0090304639462A46FFF7C2
:105A20009DFDE16F38460C9F02C0A26FE36F0290AC
:105A30003146FFF7EDFE6069A169049AA262E76250
:105A40002063616320460BF003FC99284DD124F0BC
:105A500045FF41180C310F9825F014FA23F037FA5E
:105A600041180C31284625F00DFA2046FEF766FB5A
:105A700099283AD1204607991FF058FE0D98E06208
:105A8000109820630B98606324F028FF40180C30B6
:105A90000F9925F0F7F923F01AFA40180C3029462F
:105AA00025F0F0F92046FEF749FB99281DD1022088
:105AB00006990860002520462946079A04F01EFA38
:105AC000A7630D98E06320460BF02CFDA06BE16FFF
:105AD00024F0C4FC00280BD0E06BE16F24F0BEFC86
